{
  "contractName": "DSPF",
  "abi": [
    {
      "inputs": [],
      "stateMutability": "nonpayable",
      "type": "constructor"
    },
    {
      "inputs": [],
      "name": "cooperationCnt",
      "outputs": [
        {
          "internalType": "uint256",
          "name": "",
          "type": "uint256"
        }
      ],
      "stateMutability": "view",
      "type": "function",
      "constant": true
    },
    {
      "inputs": [
        {
          "internalType": "uint256",
          "name": "",
          "type": "uint256"
        }
      ],
      "name": "cooperationHash",
      "outputs": [
        {
          "internalType": "string",
          "name": "",
          "type": "string"
        }
      ],
      "stateMutability": "view",
      "type": "function",
      "constant": true
    },
    {
      "inputs": [],
      "name": "datasetCnt",
      "outputs": [
        {
          "internalType": "uint256",
          "name": "",
          "type": "uint256"
        }
      ],
      "stateMutability": "view",
      "type": "function",
      "constant": true
    },
    {
      "inputs": [
        {
          "internalType": "uint256",
          "name": "",
          "type": "uint256"
        }
      ],
      "name": "datasetHash",
      "outputs": [
        {
          "internalType": "string",
          "name": "",
          "type": "string"
        }
      ],
      "stateMutability": "view",
      "type": "function",
      "constant": true
    },
    {
      "inputs": [],
      "name": "manager",
      "outputs": [
        {
          "internalType": "address",
          "name": "",
          "type": "address"
        }
      ],
      "stateMutability": "view",
      "type": "function",
      "constant": true
    },
    {
      "inputs": [
        {
          "internalType": "address",
          "name": "",
          "type": "address"
        }
      ],
      "name": "memberHash",
      "outputs": [
        {
          "internalType": "string",
          "name": "",
          "type": "string"
        }
      ],
      "stateMutability": "view",
      "type": "function",
      "constant": true
    },
    {
      "inputs": [
        {
          "internalType": "address",
          "name": "",
          "type": "address"
        }
      ],
      "name": "members",
      "outputs": [
        {
          "internalType": "bool",
          "name": "",
          "type": "bool"
        }
      ],
      "stateMutability": "view",
      "type": "function",
      "constant": true
    },
    {
      "inputs": [
        {
          "internalType": "string",
          "name": "_memHash",
          "type": "string"
        }
      ],
      "name": "register",
      "outputs": [],
      "stateMutability": "nonpayable",
      "type": "function"
    },
    {
      "inputs": [],
      "name": "getMember",
      "outputs": [
        {
          "internalType": "string",
          "name": "",
          "type": "string"
        }
      ],
      "stateMutability": "view",
      "type": "function",
      "constant": true
    },
    {
      "inputs": [
        {
          "internalType": "string",
          "name": "_memHash",
          "type": "string"
        }
      ],
      "name": "updateMember",
      "outputs": [],
      "stateMutability": "nonpayable",
      "type": "function"
    },
    {
      "inputs": [
        {
          "internalType": "string",
          "name": "_cooperationHash",
          "type": "string"
        }
      ],
      "name": "createCooperation",
      "outputs": [],
      "stateMutability": "nonpayable",
      "type": "function"
    },
    {
      "inputs": [
        {
          "internalType": "uint256",
          "name": "cooperationID",
          "type": "uint256"
        },
        {
          "internalType": "string",
          "name": "_cooperationHash",
          "type": "string"
        }
      ],
      "name": "updateCooperation",
      "outputs": [],
      "stateMutability": "nonpayable",
      "type": "function"
    },
    {
      "inputs": [
        {
          "internalType": "uint256",
          "name": "cooperationID",
          "type": "uint256"
        }
      ],
      "name": "getCooperation",
      "outputs": [
        {
          "internalType": "string",
          "name": "",
          "type": "string"
        }
      ],
      "stateMutability": "view",
      "type": "function",
      "constant": true
    },
    {
      "inputs": [
        {
          "internalType": "string",
          "name": "_datasetHash",
          "type": "string"
        }
      ],
      "name": "createDataset",
      "outputs": [],
      "stateMutability": "nonpayable",
      "type": "function"
    },
    {
      "inputs": [
        {
          "internalType": "uint256",
          "name": "_datasetID",
          "type": "uint256"
        }
      ],
      "name": "getDataset",
      "outputs": [
        {
          "internalType": "string",
          "name": "",
          "type": "string"
        }
      ],
      "stateMutability": "view",
      "type": "function",
      "constant": true
    },
    {
      "inputs": [],
      "name": "addCooperationWithEth",
      "outputs": [],
      "stateMutability": "payable",
      "type": "function",
      "payable": true
    }
  ],
  "bytecode": "0x60806040526000600555600060065534801561001a57600080fd5b50336000806101000a81548173ffffffffffffffffffffffffffffffffffffffff021916908373ffffffffffffffffffffffffffffffffffffffff1602179055506110708061006a6000396000f3fe6080604052600436106100f35760003560e01c8063995988a11161008a578063f0fab6d411610059578063f0fab6d414610343578063f2c298be1461036c578063ffb6212a14610395578063fff9da7e146103c0576100f3565b8063995988a114610296578063a9557430146102a0578063df51a98a146102c9578063ee00422114610306576100f3565b8063481c6a75116100c6578063481c6a75146101c657806361805f44146101f15780636ec1988d1461021c5780638f6a118514610259576100f3565b80630274c094146100f857806308ae4b0c146101235780630ec7298714610160578063341565f814610189575b600080fd5b34801561010457600080fd5b5061010d6103e9565b60405161011a9190610ebf565b60405180910390f35b34801561012f57600080fd5b5061014a60048036038101906101459190610d3c565b610532565b6040516101579190610ea4565b60405180910390f35b34801561016c57600080fd5b5061018760048036038101906101829190610d65565b610552565b005b34801561019557600080fd5b506101b060048036038101906101ab9190610da6565b6105a9565b6040516101bd9190610ebf565b60405180910390f35b3480156101d257600080fd5b506101db61065e565b6040516101e89190610e89565b60405180910390f35b3480156101fd57600080fd5b50610206610682565b6040516102139190610ee1565b60405180910390f35b34801561022857600080fd5b50610243600480360381019061023e9190610da6565b610688565b6040516102509190610ebf565b60405180910390f35b34801561026557600080fd5b50610280600480360381019061027b9190610da6565b610738565b60405161028d9190610ebf565b60405180910390f35b61029e6107e8565b005b3480156102ac57600080fd5b506102c760048036038101906102c29190610dcf565b610847565b005b3480156102d557600080fd5b506102f060048036038101906102eb9190610d3c565b6108d0565b6040516102fd9190610ebf565b60405180910390f35b34801561031257600080fd5b5061032d60048036038101906103289190610da6565b610980565b60405161033a9190610ebf565b60405180910390f35b34801561034f57600080fd5b5061036a60048036038101906103659190610d65565b610a35565b005b34801561037857600080fd5b50610393600480360381019061038e9190610d65565b610ad1565b005b3480156103a157600080fd5b506103aa610b7f565b6040516103b79190610ee1565b60405180910390f35b3480156103cc57600080fd5b506103e760048036038101906103e29190610d65565b610b85565b005b6060600160003373ffffffffffffffffffffffffffffffffffffffff1673ffffffffffffffffffffffffffffffffffffffff16815260200190815260200160002060009054906101000a900460ff161561051c57600260003373ffffffffffffffffffffffffffffffffffffffff1673ffffffffffffffffffffffffffffffffffffffff1681526020019081526020016000208054600181600116156101000203166002900480601f0160208091040260200160405190810160405280929190818152602001828054600181600116156101000203166002900480156105105780601f106104e557610100808354040283529160200191610510565b820191906000526020600020905b8154815290600101906020018083116104f357829003601f168201915b5050505050905061052f565b6040518060200160405280600081525090505b90565b60016020528060005260406000206000915054906101000a900460ff1681565b80600260003373ffffffffffffffffffffffffffffffffffffffff1673ffffffffffffffffffffffffffffffffffffffff16815260200190815260200160002090805190602001906105a5929190610c21565b5050565b6060600360008381526020019081526020016000208054600181600116156101000203166002900480601f0160208091040260200160405190810160405280929190818152602001828054600181600116156101000203166002900480156106525780601f1061062757610100808354040283529160200191610652565b820191906000526020600020905b81548152906001019060200180831161063557829003601f168201915b50505050509050919050565b60008054906101000a900473ffffffffffffffffffffffffffffffffffffffff1681565b60065481565b60036020528060005260406000206000915090508054600181600116156101000203166002900480601f0160208091040260200160405190810160405280929190818152602001828054600181600116156101000203166002900480156107305780601f1061070557610100808354040283529160200191610730565b820191906000526020600020905b81548152906001019060200180831161071357829003601f168201915b505050505081565b60046020528060005260406000206000915090508054600181600116156101000203166002900480601f0160208091040260200160405190810160405280929190818152602001828054600181600116156101000203166002900480156107e05780601f106107b5576101008083540402835291602001916107e0565b820191906000526020600020905b8154815290600101906020018083116107c357829003601f168201915b505050505081565b60011515600160003373ffffffffffffffffffffffffffffffffffffffff1673ffffffffffffffffffffffffffffffffffffffff16815260200190815260200160002060009054906101000a900460ff1615151461084557600080fd5b565b60011515600160003373ffffffffffffffffffffffffffffffffffffffff1673ffffffffffffffffffffffffffffffffffffffff16815260200190815260200160002060009054906101000a900460ff161515146108a457600080fd5b806003600084815260200190815260200160002090805190602001906108cb929190610c21565b505050565b60026020528060005260406000206000915090508054600181600116156101000203166002900480601f0160208091040260200160405190810160405280929190818152602001828054600181600116156101000203166002900480156109785780601f1061094d57610100808354040283529160200191610978565b820191906000526020600020905b81548152906001019060200180831161095b57829003601f168201915b505050505081565b6060600460008381526020019081526020016000208054600181600116156101000203166002900480601f016020809104026020016040519081016040528092919081815260200182805460018160011615610100020316600290048015610a295780601f106109fe57610100808354040283529160200191610a29565b820191906000526020600020905b815481529060010190602001808311610a0c57829003601f168201915b50505050509050919050565b60011515600160003373ffffffffffffffffffffffffffffffffffffffff1673ffffffffffffffffffffffffffffffffffffffff16815260200190815260200160002060009054906101000a900460ff16151514610a9257600080fd5b806004600060055481526020019081526020016000209080519060200190610abb929190610c21565b5060056000815480929190600101919050555050565b60018060003373ffffffffffffffffffffffffffffffffffffffff1673ffffffffffffffffffffffffffffffffffffffff16815260200190815260200160002060006101000a81548160ff02191690831515021790555080600260003373ffffffffffffffffffffffffffffffffffffffff1673ffffffffffffffffffffffffffffffffffffffff1681526020019081526020016000209080519060200190610b7b929190610c21565b5050565b60055481565b60011515600160003373ffffffffffffffffffffffffffffffffffffffff1673ffffffffffffffffffffffffffffffffffffffff16815260200190815260200160002060009054906101000a900460ff16151514610be257600080fd5b806003600060065481526020019081526020016000209080519060200190610c0b929190610c21565b5060066000815480929190600101919050555050565b828054600181600116156101000203166002900490600052602060002090601f016020900481019282601f10610c6257805160ff1916838001178555610c90565b82800160010185558215610c90579182015b82811115610c8f578251825591602001919060010190610c74565b5b509050610c9d9190610ca1565b5090565b5b80821115610cba576000816000905550600101610ca2565b5090565b600081359050610ccd8161100c565b92915050565b600082601f830112610ce457600080fd5b8135610cf7610cf282610f29565b610efc565b91508082526020830160208301858383011115610d1357600080fd5b610d1e838284610fb9565b50505092915050565b600081359050610d3681611023565b92915050565b600060208284031215610d4e57600080fd5b6000610d5c84828501610cbe565b91505092915050565b600060208284031215610d7757600080fd5b600082013567ffffffffffffffff811115610d9157600080fd5b610d9d84828501610cd3565b91505092915050565b600060208284031215610db857600080fd5b6000610dc684828501610d27565b91505092915050565b60008060408385031215610de257600080fd5b6000610df085828601610d27565b925050602083013567ffffffffffffffff811115610e0d57600080fd5b610e1985828601610cd3565b9150509250929050565b610e2c81610f71565b82525050565b610e3b81610f83565b82525050565b6000610e4c82610f55565b610e568185610f60565b9350610e66818560208601610fc8565b610e6f81610ffb565b840191505092915050565b610e8381610faf565b82525050565b6000602082019050610e9e6000830184610e23565b92915050565b6000602082019050610eb96000830184610e32565b92915050565b60006020820190508181036000830152610ed98184610e41565b905092915050565b6000602082019050610ef66000830184610e7a565b92915050565b6000604051905081810181811067ffffffffffffffff82111715610f1f57600080fd5b8060405250919050565b600067ffffffffffffffff821115610f4057600080fd5b601f19601f8301169050602081019050919050565b600081519050919050565b600082825260208201905092915050565b6000610f7c82610f8f565b9050919050565b60008115159050919050565b600073ffffffffffffffffffffffffffffffffffffffff82169050919050565b6000819050919050565b82818337600083830152505050565b60005b83811015610fe6578082015181840152602081019050610fcb565b83811115610ff5576000848401525b50505050565b6000601f19601f8301169050919050565b61101581610f71565b811461102057600080fd5b50565b61102c81610faf565b811461103757600080fd5b5056fea26469706673582212203ab4aa42cdb7c672f36cf71820117ccb7121a5521903f1191b711011229b3cb664736f6c63430007000033",
  "immutableReferences": {},
  "source": "pragma solidity >=0.7.0 <0.9.0;\r\npragma experimental ABIEncoderV2;\r\ncontract DSPF {\r\n  //平台管理者帳號\r\n  address public manager;\r\n  mapping (address => bool) public members;\r\n  mapping (address => string) public memberHash;\r\n  mapping (uint => string) public cooperationHash;\r\n  mapping (uint => string) public datasetHash;\r\n\r\n  //初始化平台管理者地址\r\n  constructor(){\r\n      manager = msg.sender;\r\n  }\r\n\r\n  //驗證是否為成員\r\n  modifier memberOnly{\r\n      require(members[msg.sender]==true);\r\n      _;\r\n  }\r\n\r\n  //計算資料申請的總數，當作資料要求的ID\r\n  uint public datasetCnt =0;\r\n  \r\n  //計算資料申請的總數，當作資料要求的ID\r\n  uint public cooperationCnt =0;\r\n\r\n  //註冊平台成員\r\n  function register(string memory _memHash) public {\r\n    members[msg.sender]=true;\r\n    memberHash[msg.sender]=_memHash;\r\n  }\r\n\r\n  //取得IPFS平台成員資訊\r\n  function getMember() public view returns (string memory) {\r\n    if(members[msg.sender])\r\n      return memberHash[msg.sender];\r\n    else\r\n      return '';\r\n  }\r\n\r\n  //更新平台成員資訊\r\n  function updateMember(string memory _memHash) public {\r\n    memberHash[msg.sender]=_memHash;\r\n  }\r\n\r\n  //創建提案\r\n  function createCooperation(string memory _cooperationHash) public memberOnly{\r\n    cooperationHash[cooperationCnt] = _cooperationHash;\r\n    cooperationCnt++;\r\n  }\r\n\r\n  //更新提案IPFS的hash\r\n  function updateCooperation(uint cooperationID,string memory _cooperationHash) public memberOnly{\r\n    cooperationHash[cooperationID] = _cooperationHash;\r\n  }\r\n\r\n  //取得提案ID對應的IPFS hash\r\n  function getCooperation(uint cooperationID) public view returns (string memory) {\r\n    return cooperationHash[cooperationID];\r\n  }\r\n\r\n  //創建資料提供者的資料資訊\r\n  function createDataset(string memory _datasetHash) public memberOnly{\r\n    datasetHash[datasetCnt] = _datasetHash;\r\n    datasetCnt++;\r\n  }\r\n\r\n  //取得資料集ID對應的IPFS hash\r\n  function getDataset(uint _datasetID) public view returns (string memory) {\r\n    return datasetHash[_datasetID];\r\n  }\r\n\r\n  //透過加密貨幣參與提案\r\n  function addCooperationWithEth() public payable memberOnly{}\r\n}\r\n",
  "sourcePath": "C:\\Users\\YunChieh\\Desktop\\DataSharePlatform_IPFS\\DataSharePlatform_IPFS\\src\\contracts\\DSPF.sol",
  "compiler": {
    "name": "solc",
    "version": "0.7.0+commit.9e61f92b.Emscripten.clang"
  },
  "schemaVersion": "3.4.4",
  "updatedAt": "2022-03-09T12:23:33.180Z",
  "networkType": "ethereum",
  "devdoc": {
    "kind": "dev",
    "methods": {},
    "version": 1
  },
  "userdoc": {
    "kind": "user",
    "methods": {},
    "version": 1
  }
}