{
  "contractName": "DSPF",
  "abi": [
    {
      "inputs": [],
      "stateMutability": "nonpayable",
      "type": "constructor"
    },
    {
      "inputs": [],
      "name": "cooperationCnt",
      "outputs": [
        {
          "internalType": "uint256",
          "name": "",
          "type": "uint256"
        }
      ],
      "stateMutability": "view",
      "type": "function",
      "constant": true
    },
    {
      "inputs": [
        {
          "internalType": "uint256",
          "name": "",
          "type": "uint256"
        }
      ],
      "name": "cooperationHash",
      "outputs": [
        {
          "internalType": "string",
          "name": "",
          "type": "string"
        }
      ],
      "stateMutability": "view",
      "type": "function",
      "constant": true
    },
    {
      "inputs": [],
      "name": "datasetCnt",
      "outputs": [
        {
          "internalType": "uint256",
          "name": "",
          "type": "uint256"
        }
      ],
      "stateMutability": "view",
      "type": "function",
      "constant": true
    },
    {
      "inputs": [
        {
          "internalType": "uint256",
          "name": "",
          "type": "uint256"
        }
      ],
      "name": "datasetHash",
      "outputs": [
        {
          "internalType": "string",
          "name": "",
          "type": "string"
        }
      ],
      "stateMutability": "view",
      "type": "function",
      "constant": true
    },
    {
      "inputs": [
        {
          "internalType": "uint256",
          "name": "",
          "type": "uint256"
        }
      ],
      "name": "idtoWait",
      "outputs": [
        {
          "internalType": "address",
          "name": "",
          "type": "address"
        }
      ],
      "stateMutability": "view",
      "type": "function",
      "constant": true
    },
    {
      "inputs": [],
      "name": "manager",
      "outputs": [
        {
          "internalType": "address",
          "name": "",
          "type": "address"
        }
      ],
      "stateMutability": "view",
      "type": "function",
      "constant": true
    },
    {
      "inputs": [
        {
          "internalType": "address",
          "name": "",
          "type": "address"
        }
      ],
      "name": "memberHash",
      "outputs": [
        {
          "internalType": "string",
          "name": "",
          "type": "string"
        }
      ],
      "stateMutability": "view",
      "type": "function",
      "constant": true
    },
    {
      "inputs": [
        {
          "internalType": "address",
          "name": "",
          "type": "address"
        }
      ],
      "name": "members",
      "outputs": [
        {
          "internalType": "bool",
          "name": "",
          "type": "bool"
        }
      ],
      "stateMutability": "view",
      "type": "function",
      "constant": true
    },
    {
      "inputs": [],
      "name": "waitingMemsCnt",
      "outputs": [
        {
          "internalType": "uint256",
          "name": "",
          "type": "uint256"
        }
      ],
      "stateMutability": "view",
      "type": "function",
      "constant": true
    },
    {
      "inputs": [
        {
          "internalType": "address",
          "name": "",
          "type": "address"
        }
      ],
      "name": "watingVerified",
      "outputs": [
        {
          "internalType": "bool",
          "name": "",
          "type": "bool"
        }
      ],
      "stateMutability": "view",
      "type": "function",
      "constant": true
    },
    {
      "inputs": [
        {
          "internalType": "address",
          "name": "addr",
          "type": "address"
        }
      ],
      "name": "registerVerified",
      "outputs": [],
      "stateMutability": "nonpayable",
      "type": "function"
    },
    {
      "inputs": [
        {
          "internalType": "string",
          "name": "_memHash",
          "type": "string"
        }
      ],
      "name": "waitingVerified",
      "outputs": [],
      "stateMutability": "nonpayable",
      "type": "function"
    },
    {
      "inputs": [],
      "name": "getMember",
      "outputs": [
        {
          "internalType": "string",
          "name": "",
          "type": "string"
        }
      ],
      "stateMutability": "view",
      "type": "function",
      "constant": true
    },
    {
      "inputs": [
        {
          "internalType": "string",
          "name": "_memHash",
          "type": "string"
        }
      ],
      "name": "updateMember",
      "outputs": [],
      "stateMutability": "nonpayable",
      "type": "function"
    },
    {
      "inputs": [
        {
          "internalType": "string",
          "name": "_cooperationHash",
          "type": "string"
        }
      ],
      "name": "createCooperation",
      "outputs": [],
      "stateMutability": "nonpayable",
      "type": "function"
    },
    {
      "inputs": [
        {
          "internalType": "uint256",
          "name": "cooperationID",
          "type": "uint256"
        },
        {
          "internalType": "string",
          "name": "_cooperationHash",
          "type": "string"
        }
      ],
      "name": "updateCooperation",
      "outputs": [],
      "stateMutability": "nonpayable",
      "type": "function"
    },
    {
      "inputs": [
        {
          "internalType": "uint256",
          "name": "cooperationID",
          "type": "uint256"
        }
      ],
      "name": "getCooperation",
      "outputs": [
        {
          "internalType": "string",
          "name": "",
          "type": "string"
        }
      ],
      "stateMutability": "view",
      "type": "function",
      "constant": true
    },
    {
      "inputs": [
        {
          "internalType": "string",
          "name": "_datasetHash",
          "type": "string"
        }
      ],
      "name": "createDataset",
      "outputs": [],
      "stateMutability": "nonpayable",
      "type": "function"
    },
    {
      "inputs": [
        {
          "internalType": "uint256",
          "name": "_datasetID",
          "type": "uint256"
        }
      ],
      "name": "getDataset",
      "outputs": [
        {
          "internalType": "string",
          "name": "",
          "type": "string"
        }
      ],
      "stateMutability": "view",
      "type": "function",
      "constant": true
    },
    {
      "inputs": [],
      "name": "addCooperationWithEth",
      "outputs": [],
      "stateMutability": "payable",
      "type": "function",
      "payable": true
    },
    {
      "inputs": [],
      "name": "getContractBalance",
      "outputs": [
        {
          "internalType": "uint256",
          "name": "",
          "type": "uint256"
        }
      ],
      "stateMutability": "view",
      "type": "function",
      "constant": true
    },
    {
      "inputs": [
        {
          "internalType": "address payable[]",
          "name": "getEthmembers",
          "type": "address[]"
        },
        {
          "internalType": "uint256[]",
          "name": "amount",
          "type": "uint256[]"
        },
        {
          "internalType": "uint256",
          "name": "totalAmount",
          "type": "uint256"
        }
      ],
      "name": "distributePay",
      "outputs": [],
      "stateMutability": "nonpayable",
      "type": "function"
    },
    {
      "inputs": [],
      "name": "kill",
      "outputs": [],
      "stateMutability": "nonpayable",
      "type": "function"
    }
  ],
  "bytecode": "0x608060405260006007556000600855600060095534801561001f57600080fd5b50336000806101000a81548173ffffffffffffffffffffffffffffffffffffffff021916908373ffffffffffffffffffffffffffffffffffffffff1602179055506117678061006f6000396000f3fe6080604052600436106101405760003560e01c80636f9fb98a116100b6578063c56f7f801161006f578063c56f7f801461043b578063df51a98a14610478578063ee004221146104b5578063f0fab6d4146104f2578063ffb6212a1461051b578063fff9da7e1461054657610140565b80636f9fb98a1461033a578063724d9e361461036557806373e62afe146103a25780638f6a1185146103cb578063995988a114610408578063a95574301461041257610140565b8063341565f811610108578063341565f81461022a57806341c0e1b514610267578063481c6a751461027e57806348f0f6f0146102a957806361805f44146102d25780636ec1988d146102fd57610140565b80630274c0941461014557806308ae4b0c146101705780630b011093146101ad5780630ec72987146101d657806314a10b4d146101ff575b600080fd5b34801561015157600080fd5b5061015a61056f565b604051610167919061151d565b60405180910390f35b34801561017c57600080fd5b50610197600480360381019061019291906112b5565b6106b8565b6040516101a49190611502565b60405180910390f35b3480156101b957600080fd5b506101d460048036038101906101cf91906112b5565b6106d8565b005b3480156101e257600080fd5b506101fd60048036038101906101f8919061135d565b61078a565b005b34801561020b57600080fd5b506102146107e1565b604051610221919061155f565b60405180910390f35b34801561023657600080fd5b50610251600480360381019061024c919061139e565b6107e7565b60405161025e919061151d565b60405180910390f35b34801561027357600080fd5b5061027c61089c565b005b34801561028a57600080fd5b5061029361092b565b6040516102a091906114e7565b60405180910390f35b3480156102b557600080fd5b506102d060048036038101906102cb919061135d565b61094f565b005b3480156102de57600080fd5b506102e7610a64565b6040516102f4919061155f565b60405180910390f35b34801561030957600080fd5b50610324600480360381019061031f919061139e565b610a6a565b604051610331919061151d565b60405180910390f35b34801561034657600080fd5b5061034f610b1a565b60405161035c919061155f565b60405180910390f35b34801561037157600080fd5b5061038c6004803603810190610387919061139e565b610b22565b60405161039991906114e7565b60405180910390f35b3480156103ae57600080fd5b506103c960048036038101906103c491906112de565b610b55565b005b3480156103d757600080fd5b506103f260048036038101906103ed919061139e565b610c24565b6040516103ff919061151d565b60405180910390f35b610410610cd4565b005b34801561041e57600080fd5b50610439600480360381019061043491906113c7565b610d33565b005b34801561044757600080fd5b50610462600480360381019061045d91906112b5565b610dbc565b60405161046f9190611502565b60405180910390f35b34801561048457600080fd5b5061049f600480360381019061049a91906112b5565b610ddc565b6040516104ac919061151d565b60405180910390f35b3480156104c157600080fd5b506104dc60048036038101906104d7919061139e565b610e8c565b6040516104e9919061151d565b60405180910390f35b3480156104fe57600080fd5b506105196004803603810190610514919061135d565b610f41565b005b34801561052757600080fd5b50610530610fdd565b60405161053d919061155f565b60405180910390f35b34801561055257600080fd5b5061056d6004803603810190610568919061135d565b610fe3565b005b6060600160003373ffffffffffffffffffffffffffffffffffffffff1673ffffffffffffffffffffffffffffffffffffffff16815260200190815260200160002060009054906101000a900460ff16156106a257600460003373ffffffffffffffffffffffffffffffffffffffff1673ffffffffffffffffffffffffffffffffffffffff1681526020019081526020016000208054600181600116156101000203166002900480601f0160208091040260200160405190810160405280929190818152602001828054600181600116156101000203166002900480156106965780601f1061066b57610100808354040283529160200191610696565b820191906000526020600020905b81548152906001019060200180831161067957829003601f168201915b505050505090506106b5565b6040518060200160405280600081525090505b90565b60016020528060005260406000206000915054906101000a900460ff1681565b6000600360008373ffffffffffffffffffffffffffffffffffffffff1673ffffffffffffffffffffffffffffffffffffffff16815260200190815260200160002060006101000a81548160ff02191690831515021790555060018060008373ffffffffffffffffffffffffffffffffffffffff1673ffffffffffffffffffffffffffffffffffffffff16815260200190815260200160002060006101000a81548160ff02191690831515021790555050565b80600460003373ffffffffffffffffffffffffffffffffffffffff1673ffffffffffffffffffffffffffffffffffffffff16815260200190815260200160002090805190602001906107dd92919061107f565b5050565b60075481565b6060600560008381526020019081526020016000208054600181600116156101000203166002900480601f0160208091040260200160405190810160405280929190818152602001828054600181600116156101000203166002900480156108905780601f1061086557610100808354040283529160200191610890565b820191906000526020600020905b81548152906001019060200180831161087357829003601f168201915b50505050509050919050565b60008054906101000a900473ffffffffffffffffffffffffffffffffffffffff1673ffffffffffffffffffffffffffffffffffffffff163373ffffffffffffffffffffffffffffffffffffffff1614156109295760008054906101000a900473ffffffffffffffffffffffffffffffffffffffff1673ffffffffffffffffffffffffffffffffffffffff16ff5b565b60008054906101000a900473ffffffffffffffffffffffffffffffffffffffff1681565b3360026000600754815260200190815260200160002060006101000a81548173ffffffffffffffffffffffffffffffffffffffff021916908373ffffffffffffffffffffffffffffffffffffffff1602179055506001600360003373ffffffffffffffffffffffffffffffffffffffff1673ffffffffffffffffffffffffffffffffffffffff16815260200190815260200160002060006101000a81548160ff02191690831515021790555080600460003373ffffffffffffffffffffffffffffffffffffffff1673ffffffffffffffffffffffffffffffffffffffff1681526020019081526020016000209080519060200190610a4e92919061107f565b5060076000815480929190600101919050555050565b60095481565b60056020528060005260406000206000915090508054600181600116156101000203166002900480601f016020809104026020016040519081016040528092919081815260200182805460018160011615610100020316600290048015610b125780601f10610ae757610100808354040283529160200191610b12565b820191906000526020600020905b815481529060010190602001808311610af557829003601f168201915b505050505081565b600047905090565b60026020528060005260406000206000915054906101000a900473ffffffffffffffffffffffffffffffffffffffff1681565b80471015610b98576040517f08c379a0000000000000000000000000000000000000000000000000000000008152600401610b8f9061153f565b60405180910390fd5b60005b8351811015610c1e57838181518110610bb057fe5b602002602001015173ffffffffffffffffffffffffffffffffffffffff166108fc848381518110610bdd57fe5b60200260200101519081150290604051600060405180830381858888f19350505050158015610c10573d6000803e3d6000fd5b508080600101915050610b9b565b50505050565b60066020528060005260406000206000915090508054600181600116156101000203166002900480601f016020809104026020016040519081016040528092919081815260200182805460018160011615610100020316600290048015610ccc5780601f10610ca157610100808354040283529160200191610ccc565b820191906000526020600020905b815481529060010190602001808311610caf57829003601f168201915b505050505081565b60011515600160003373ffffffffffffffffffffffffffffffffffffffff1673ffffffffffffffffffffffffffffffffffffffff16815260200190815260200160002060009054906101000a900460ff16151514610d3157600080fd5b565b60011515600160003373ffffffffffffffffffffffffffffffffffffffff1673ffffffffffffffffffffffffffffffffffffffff16815260200190815260200160002060009054906101000a900460ff16151514610d9057600080fd5b80600560008481526020019081526020016000209080519060200190610db792919061107f565b505050565b60036020528060005260406000206000915054906101000a900460ff1681565b60046020528060005260406000206000915090508054600181600116156101000203166002900480601f016020809104026020016040519081016040528092919081815260200182805460018160011615610100020316600290048015610e845780601f10610e5957610100808354040283529160200191610e84565b820191906000526020600020905b815481529060010190602001808311610e6757829003601f168201915b505050505081565b6060600660008381526020019081526020016000208054600181600116156101000203166002900480601f016020809104026020016040519081016040528092919081815260200182805460018160011615610100020316600290048015610f355780601f10610f0a57610100808354040283529160200191610f35565b820191906000526020600020905b815481529060010190602001808311610f1857829003601f168201915b50505050509050919050565b60011515600160003373ffffffffffffffffffffffffffffffffffffffff1673ffffffffffffffffffffffffffffffffffffffff16815260200190815260200160002060009054906101000a900460ff16151514610f9e57600080fd5b806006600060085481526020019081526020016000209080519060200190610fc792919061107f565b5060086000815480929190600101919050555050565b60085481565b60011515600160003373ffffffffffffffffffffffffffffffffffffffff1673ffffffffffffffffffffffffffffffffffffffff16815260200190815260200160002060009054906101000a900460ff1615151461104057600080fd5b80600560006009548152602001908152602001600020908051906020019061106992919061107f565b5060096000815480929190600101919050555050565b828054600181600116156101000203166002900490600052602060002090601f016020900481019282601f106110c057805160ff19168380011785556110ee565b828001600101855582156110ee579182015b828111156110ed5782518255916020019190600101906110d2565b5b5090506110fb91906110ff565b5090565b5b80821115611118576000816000905550600101611100565b5090565b60008135905061112b816116ec565b92915050565b60008135905061114081611703565b92915050565b600082601f83011261115757600080fd5b813561116a611165826115a7565b61157a565b9150818183526020840193506020810190508385602084028201111561118f57600080fd5b60005b838110156111bf57816111a58882611131565b845260208401935060208301925050600181019050611192565b5050505092915050565b600082601f8301126111da57600080fd5b81356111ed6111e8826115cf565b61157a565b9150818183526020840193506020810190508385602084028201111561121257600080fd5b60005b83811015611242578161122888826112a0565b845260208401935060208301925050600181019050611215565b5050505092915050565b600082601f83011261125d57600080fd5b813561127061126b826115f7565b61157a565b9150808252602083016020830185838301111561128c57600080fd5b611297838284611699565b50505092915050565b6000813590506112af8161171a565b92915050565b6000602082840312156112c757600080fd5b60006112d58482850161111c565b91505092915050565b6000806000606084860312156112f357600080fd5b600084013567ffffffffffffffff81111561130d57600080fd5b61131986828701611146565b935050602084013567ffffffffffffffff81111561133657600080fd5b611342868287016111c9565b9250506040611353868287016112a0565b9150509250925092565b60006020828403121561136f57600080fd5b600082013567ffffffffffffffff81111561138957600080fd5b6113958482850161124c565b91505092915050565b6000602082840312156113b057600080fd5b60006113be848285016112a0565b91505092915050565b600080604083850312156113da57600080fd5b60006113e8858286016112a0565b925050602083013567ffffffffffffffff81111561140557600080fd5b6114118582860161124c565b9150509250929050565b6114248161163f565b82525050565b61143381611663565b82525050565b600061144482611623565b61144e818561162e565b935061145e8185602086016116a8565b611467816116db565b840191505092915050565b600061147f60358361162e565b91507f496e73756666696369656e742062616c616e636520696e20666175636574206660008301527f6f72207769746864726177616c207265717565737400000000000000000000006020830152604082019050919050565b6114e18161168f565b82525050565b60006020820190506114fc600083018461141b565b92915050565b6000602082019050611517600083018461142a565b92915050565b600060208201905081810360008301526115378184611439565b905092915050565b6000602082019050818103600083015261155881611472565b9050919050565b600060208201905061157460008301846114d8565b92915050565b6000604051905081810181811067ffffffffffffffff8211171561159d57600080fd5b8060405250919050565b600067ffffffffffffffff8211156115be57600080fd5b602082029050602081019050919050565b600067ffffffffffffffff8211156115e657600080fd5b602082029050602081019050919050565b600067ffffffffffffffff82111561160e57600080fd5b601f19601f8301169050602081019050919050565b600081519050919050565b600082825260208201905092915050565b600061164a8261166f565b9050919050565b600061165c8261166f565b9050919050565b60008115159050919050565b600073ffffffffffffffffffffffffffffffffffffffff82169050919050565b6000819050919050565b82818337600083830152505050565b60005b838110156116c65780820151818401526020810190506116ab565b838111156116d5576000848401525b50505050565b6000601f19601f8301169050919050565b6116f58161163f565b811461170057600080fd5b50565b61170c81611651565b811461171757600080fd5b50565b6117238161168f565b811461172e57600080fd5b5056fea2646970667358221220d29711a4bc7343e7ff622f381fddacb795a2d038b746cab8d7df2124292d7e2c64736f6c63430007000033",
  "immutableReferences": {},
  "source": "// SPDX-License-Identifier: GPL-3.0\r\npragma solidity >=0.7.0 <0.9.0;\r\npragma experimental ABIEncoderV2;\r\ncontract DSPF {\r\n  //平台管理者帳號\r\n  address public manager;\r\n  mapping (address => bool) public members;\r\n  mapping (uint => address) public idtoWait;\r\n  mapping (address => bool) public watingVerified;\r\n\r\n  mapping (address => string) public memberHash;\r\n  mapping (uint => string) public cooperationHash;\r\n  mapping (uint => string) public datasetHash;\r\n\r\n  //初始化平台管理者地址\r\n  constructor(){\r\n      manager = msg.sender;\r\n  }\r\n\r\n  //驗證是否為成員\r\n  modifier memberOnly{\r\n      require(members[msg.sender]==true);\r\n      _;\r\n  }\r\n  //等待驗證的成員總數\r\n  uint public waitingMemsCnt =0;\r\n  \r\n  //計算資料申請的總數，當作資料要求的ID\r\n  uint public datasetCnt =0;\r\n  \r\n  //計算資料申請的總數，當作資料要求的ID\r\n  uint public cooperationCnt =0;\r\n\r\n  //註冊平台成員\r\n  function registerVerified(address addr) public {\r\n    watingVerified[addr]=false;\r\n    members[addr]=true;\r\n  }\r\n  //註冊等待驗證\r\n  function waitingVerified(string memory _memHash) public {\r\n    idtoWait[waitingMemsCnt]=msg.sender;\r\n    watingVerified[msg.sender]=true;\r\n    memberHash[msg.sender]=_memHash;\r\n    waitingMemsCnt++;\r\n  }\r\n\r\n  //取得IPFS平台成員資訊\r\n  function getMember() public view returns (string memory) {\r\n    if(members[msg.sender])\r\n      return memberHash[msg.sender];\r\n    else\r\n      return '';\r\n  }\r\n\r\n  //更新平台成員資訊\r\n  function updateMember(string memory _memHash) public {\r\n    memberHash[msg.sender]=_memHash;\r\n  }\r\n\r\n  //創建提案\r\n  function createCooperation(string memory _cooperationHash) public memberOnly{\r\n    cooperationHash[cooperationCnt] = _cooperationHash;\r\n    cooperationCnt++;\r\n  }\r\n\r\n  //更新提案IPFS的hash\r\n  function updateCooperation(uint cooperationID,string memory _cooperationHash) public memberOnly{\r\n    cooperationHash[cooperationID] = _cooperationHash;\r\n  }\r\n\r\n  //取得提案ID對應的IPFS hash\r\n  function getCooperation(uint cooperationID) public view returns (string memory) {\r\n    return cooperationHash[cooperationID];\r\n  }\r\n\r\n  //創建資料提供者的資料資訊\r\n  function createDataset(string memory _datasetHash) public memberOnly{\r\n    datasetHash[datasetCnt] = _datasetHash;\r\n    datasetCnt++;\r\n  }\r\n\r\n  //取得資料集ID對應的IPFS hash\r\n  function getDataset(uint _datasetID) public view returns (string memory) {\r\n    return datasetHash[_datasetID];\r\n  }\r\n\r\n  //透過加密貨幣參與提案\r\n  function addCooperationWithEth() public payable memberOnly{}\r\n\r\n  //回傳合約餘額\r\n  function getContractBalance() public view returns(uint) {\r\n    return address(this).balance;\r\n  }\r\n\r\n  //分派獎金\r\n  function distributePay(address payable[] memory getEthmembers, uint256[] memory amount,uint256 totalAmount) public{\r\n      require(address(this).balance>=totalAmount,\"Insufficient balance in faucet for withdrawal request\");\r\n      for(uint i = 0;i<getEthmembers.length;i++) \r\n        getEthmembers[i].transfer(amount[i]);\r\n  }\r\n  function kill() public {\r\n        if (msg.sender == manager) selfdestruct(payable(manager)); //銷毀合約並將合約內的金額轉回給合約建立者地址\r\n  }\r\n}\r\n",
  "sourcePath": "C:\\Users\\YunChieh\\Desktop\\DataSharePlatform_IPFS\\DataSharePlatform_IPFS\\src\\contracts\\DSPF.sol",
  "compiler": {
    "name": "solc",
    "version": "0.7.0+commit.9e61f92b.Emscripten.clang"
  },
  "schemaVersion": "3.4.4",
  "updatedAt": "2022-04-27T07:17:03.911Z",
  "networkType": "ethereum",
  "devdoc": {
    "kind": "dev",
    "methods": {},
    "version": 1
  },
  "userdoc": {
    "kind": "user",
    "methods": {},
    "version": 1
  }
}