{
  "contractName": "DSPF",
  "abi": [
    {
      "inputs": [],
      "stateMutability": "nonpayable",
      "type": "constructor"
    },
    {
      "inputs": [],
      "name": "cooperationCnt",
      "outputs": [
        {
          "internalType": "uint256",
          "name": "",
          "type": "uint256"
        }
      ],
      "stateMutability": "view",
      "type": "function",
      "constant": true
    },
    {
      "inputs": [
        {
          "internalType": "uint256",
          "name": "",
          "type": "uint256"
        }
      ],
      "name": "cooperationHash",
      "outputs": [
        {
          "internalType": "string",
          "name": "",
          "type": "string"
        }
      ],
      "stateMutability": "view",
      "type": "function",
      "constant": true
    },
    {
      "inputs": [],
      "name": "datasetCnt",
      "outputs": [
        {
          "internalType": "uint256",
          "name": "",
          "type": "uint256"
        }
      ],
      "stateMutability": "view",
      "type": "function",
      "constant": true
    },
    {
      "inputs": [
        {
          "internalType": "uint256",
          "name": "",
          "type": "uint256"
        }
      ],
      "name": "datasetHash",
      "outputs": [
        {
          "internalType": "string",
          "name": "",
          "type": "string"
        }
      ],
      "stateMutability": "view",
      "type": "function",
      "constant": true
    },
    {
      "inputs": [],
      "name": "manager",
      "outputs": [
        {
          "internalType": "address",
          "name": "",
          "type": "address"
        }
      ],
      "stateMutability": "view",
      "type": "function",
      "constant": true
    },
    {
      "inputs": [
        {
          "internalType": "address",
          "name": "",
          "type": "address"
        }
      ],
      "name": "memberHash",
      "outputs": [
        {
          "internalType": "string",
          "name": "",
          "type": "string"
        }
      ],
      "stateMutability": "view",
      "type": "function",
      "constant": true
    },
    {
      "inputs": [
        {
          "internalType": "address",
          "name": "",
          "type": "address"
        }
      ],
      "name": "members",
      "outputs": [
        {
          "internalType": "bool",
          "name": "",
          "type": "bool"
        }
      ],
      "stateMutability": "view",
      "type": "function",
      "constant": true
    },
    {
      "inputs": [
        {
          "internalType": "string",
          "name": "_memHash",
          "type": "string"
        }
      ],
      "name": "register",
      "outputs": [],
      "stateMutability": "nonpayable",
      "type": "function"
    },
    {
      "inputs": [],
      "name": "getMember",
      "outputs": [
        {
          "internalType": "string",
          "name": "",
          "type": "string"
        }
      ],
      "stateMutability": "view",
      "type": "function",
      "constant": true
    },
    {
      "inputs": [
        {
          "internalType": "string",
          "name": "_memHash",
          "type": "string"
        }
      ],
      "name": "updateMember",
      "outputs": [],
      "stateMutability": "nonpayable",
      "type": "function"
    },
    {
      "inputs": [
        {
          "internalType": "string",
          "name": "_cooperationHash",
          "type": "string"
        }
      ],
      "name": "createCooperation",
      "outputs": [],
      "stateMutability": "nonpayable",
      "type": "function"
    },
    {
      "inputs": [
        {
          "internalType": "uint256",
          "name": "cooperationID",
          "type": "uint256"
        },
        {
          "internalType": "string",
          "name": "_cooperationHash",
          "type": "string"
        }
      ],
      "name": "updateCooperation",
      "outputs": [],
      "stateMutability": "nonpayable",
      "type": "function"
    },
    {
      "inputs": [
        {
          "internalType": "uint256",
          "name": "cooperationID",
          "type": "uint256"
        }
      ],
      "name": "getCooperation",
      "outputs": [
        {
          "internalType": "string",
          "name": "",
          "type": "string"
        }
      ],
      "stateMutability": "view",
      "type": "function",
      "constant": true
    },
    {
      "inputs": [
        {
          "internalType": "string",
          "name": "_datasetHash",
          "type": "string"
        }
      ],
      "name": "createDataset",
      "outputs": [],
      "stateMutability": "nonpayable",
      "type": "function"
    },
    {
      "inputs": [
        {
          "internalType": "uint256",
          "name": "_datasetID",
          "type": "uint256"
        }
      ],
      "name": "getDataset",
      "outputs": [
        {
          "internalType": "string",
          "name": "",
          "type": "string"
        }
      ],
      "stateMutability": "view",
      "type": "function",
      "constant": true
    },
    {
      "inputs": [],
      "name": "addCooperationWithEth",
      "outputs": [],
      "stateMutability": "payable",
      "type": "function",
      "payable": true
    },
    {
      "inputs": [],
      "name": "getContractBalance",
      "outputs": [
        {
          "internalType": "uint256",
          "name": "",
          "type": "uint256"
        }
      ],
      "stateMutability": "view",
      "type": "function",
      "constant": true
    },
    {
      "inputs": [
        {
          "internalType": "address payable[]",
          "name": "getEthmembers",
          "type": "address[]"
        },
        {
          "internalType": "uint256[]",
          "name": "amount",
          "type": "uint256[]"
        },
        {
          "internalType": "uint256",
          "name": "totalAmount",
          "type": "uint256"
        }
      ],
      "name": "distributePay",
      "outputs": [],
      "stateMutability": "nonpayable",
      "type": "function"
    },
    {
      "inputs": [],
      "name": "kill",
      "outputs": [],
      "stateMutability": "nonpayable",
      "type": "function"
    }
  ],
  "bytecode": "0x60806040526000600555600060065534801561001a57600080fd5b50336000806101000a81548173ffffffffffffffffffffffffffffffffffffffff021916908373ffffffffffffffffffffffffffffffffffffffff1602179055506114fb8061006a6000396000f3fe6080604052600436106101145760003560e01c806373e62afe116100a0578063ee00422111610064578063ee00422114610392578063f0fab6d4146103cf578063f2c298be146103f8578063ffb6212a14610421578063fff9da7e1461044c57610114565b806373e62afe146102bc5780638f6a1185146102e5578063995988a114610322578063a95574301461032c578063df51a98a1461035557610114565b806341c0e1b5116100e757806341c0e1b5146101e7578063481c6a75146101fe57806361805f44146102295780636ec1988d146102545780636f9fb98a1461029157610114565b80630274c0941461011957806308ae4b0c146101445780630ec7298714610181578063341565f8146101aa575b600080fd5b34801561012557600080fd5b5061012e610475565b60405161013b91906112b1565b60405180910390f35b34801561015057600080fd5b5061016b60048036038101906101669190611049565b6105be565b6040516101789190611296565b60405180910390f35b34801561018d57600080fd5b506101a860048036038101906101a391906110f1565b6105de565b005b3480156101b657600080fd5b506101d160048036038101906101cc9190611132565b610635565b6040516101de91906112b1565b60405180910390f35b3480156101f357600080fd5b506101fc6106ea565b005b34801561020a57600080fd5b50610213610779565b604051610220919061127b565b60405180910390f35b34801561023557600080fd5b5061023e61079d565b60405161024b91906112f3565b60405180910390f35b34801561026057600080fd5b5061027b60048036038101906102769190611132565b6107a3565b60405161028891906112b1565b60405180910390f35b34801561029d57600080fd5b506102a6610853565b6040516102b391906112f3565b60405180910390f35b3480156102c857600080fd5b506102e360048036038101906102de9190611072565b61085b565b005b3480156102f157600080fd5b5061030c60048036038101906103079190611132565b61092a565b60405161031991906112b1565b60405180910390f35b61032a6109da565b005b34801561033857600080fd5b50610353600480360381019061034e919061115b565b610a39565b005b34801561036157600080fd5b5061037c60048036038101906103779190611049565b610ac2565b60405161038991906112b1565b60405180910390f35b34801561039e57600080fd5b506103b960048036038101906103b49190611132565b610b72565b6040516103c691906112b1565b60405180910390f35b3480156103db57600080fd5b506103f660048036038101906103f191906110f1565b610c27565b005b34801561040457600080fd5b5061041f600480360381019061041a91906110f1565b610cc3565b005b34801561042d57600080fd5b50610436610d71565b60405161044391906112f3565b60405180910390f35b34801561045857600080fd5b50610473600480360381019061046e91906110f1565b610d77565b005b6060600160003373ffffffffffffffffffffffffffffffffffffffff1673ffffffffffffffffffffffffffffffffffffffff16815260200190815260200160002060009054906101000a900460ff16156105a857600260003373ffffffffffffffffffffffffffffffffffffffff1673ffffffffffffffffffffffffffffffffffffffff1681526020019081526020016000208054600181600116156101000203166002900480601f01602080910402602001604051908101604052809291908181526020018280546001816001161561010002031660029004801561059c5780601f106105715761010080835404028352916020019161059c565b820191906000526020600020905b81548152906001019060200180831161057f57829003601f168201915b505050505090506105bb565b6040518060200160405280600081525090505b90565b60016020528060005260406000206000915054906101000a900460ff1681565b80600260003373ffffffffffffffffffffffffffffffffffffffff1673ffffffffffffffffffffffffffffffffffffffff1681526020019081526020016000209080519060200190610631929190610e13565b5050565b6060600360008381526020019081526020016000208054600181600116156101000203166002900480601f0160208091040260200160405190810160405280929190818152602001828054600181600116156101000203166002900480156106de5780601f106106b3576101008083540402835291602001916106de565b820191906000526020600020905b8154815290600101906020018083116106c157829003601f168201915b50505050509050919050565b60008054906101000a900473ffffffffffffffffffffffffffffffffffffffff1673ffffffffffffffffffffffffffffffffffffffff163373ffffffffffffffffffffffffffffffffffffffff1614156107775760008054906101000a900473ffffffffffffffffffffffffffffffffffffffff1673ffffffffffffffffffffffffffffffffffffffff16ff5b565b60008054906101000a900473ffffffffffffffffffffffffffffffffffffffff1681565b60065481565b60036020528060005260406000206000915090508054600181600116156101000203166002900480601f01602080910402602001604051908101604052809291908181526020018280546001816001161561010002031660029004801561084b5780601f106108205761010080835404028352916020019161084b565b820191906000526020600020905b81548152906001019060200180831161082e57829003601f168201915b505050505081565b600047905090565b8047101561089e576040517f08c379a0000000000000000000000000000000000000000000000000000000008152600401610895906112d3565b60405180910390fd5b60005b8351811015610924578381815181106108b657fe5b602002602001015173ffffffffffffffffffffffffffffffffffffffff166108fc8483815181106108e357fe5b60200260200101519081150290604051600060405180830381858888f19350505050158015610916573d6000803e3d6000fd5b5080806001019150506108a1565b50505050565b60046020528060005260406000206000915090508054600181600116156101000203166002900480601f0160208091040260200160405190810160405280929190818152602001828054600181600116156101000203166002900480156109d25780601f106109a7576101008083540402835291602001916109d2565b820191906000526020600020905b8154815290600101906020018083116109b557829003601f168201915b505050505081565b60011515600160003373ffffffffffffffffffffffffffffffffffffffff1673ffffffffffffffffffffffffffffffffffffffff16815260200190815260200160002060009054906101000a900460ff16151514610a3757600080fd5b565b60011515600160003373ffffffffffffffffffffffffffffffffffffffff1673ffffffffffffffffffffffffffffffffffffffff16815260200190815260200160002060009054906101000a900460ff16151514610a9657600080fd5b80600360008481526020019081526020016000209080519060200190610abd929190610e13565b505050565b60026020528060005260406000206000915090508054600181600116156101000203166002900480601f016020809104026020016040519081016040528092919081815260200182805460018160011615610100020316600290048015610b6a5780601f10610b3f57610100808354040283529160200191610b6a565b820191906000526020600020905b815481529060010190602001808311610b4d57829003601f168201915b505050505081565b6060600460008381526020019081526020016000208054600181600116156101000203166002900480601f016020809104026020016040519081016040528092919081815260200182805460018160011615610100020316600290048015610c1b5780601f10610bf057610100808354040283529160200191610c1b565b820191906000526020600020905b815481529060010190602001808311610bfe57829003601f168201915b50505050509050919050565b60011515600160003373ffffffffffffffffffffffffffffffffffffffff1673ffffffffffffffffffffffffffffffffffffffff16815260200190815260200160002060009054906101000a900460ff16151514610c8457600080fd5b806004600060055481526020019081526020016000209080519060200190610cad929190610e13565b5060056000815480929190600101919050555050565b60018060003373ffffffffffffffffffffffffffffffffffffffff1673ffffffffffffffffffffffffffffffffffffffff16815260200190815260200160002060006101000a81548160ff02191690831515021790555080600260003373ffffffffffffffffffffffffffffffffffffffff1673ffffffffffffffffffffffffffffffffffffffff1681526020019081526020016000209080519060200190610d6d929190610e13565b5050565b60055481565b60011515600160003373ffffffffffffffffffffffffffffffffffffffff1673ffffffffffffffffffffffffffffffffffffffff16815260200190815260200160002060009054906101000a900460ff16151514610dd457600080fd5b806003600060065481526020019081526020016000209080519060200190610dfd929190610e13565b5060066000815480929190600101919050555050565b828054600181600116156101000203166002900490600052602060002090601f016020900481019282601f10610e5457805160ff1916838001178555610e82565b82800160010185558215610e82579182015b82811115610e81578251825591602001919060010190610e66565b5b509050610e8f9190610e93565b5090565b5b80821115610eac576000816000905550600101610e94565b5090565b600081359050610ebf81611480565b92915050565b600081359050610ed481611497565b92915050565b600082601f830112610eeb57600080fd5b8135610efe610ef98261133b565b61130e565b91508181835260208401935060208101905083856020840282011115610f2357600080fd5b60005b83811015610f535781610f398882610ec5565b845260208401935060208301925050600181019050610f26565b5050505092915050565b600082601f830112610f6e57600080fd5b8135610f81610f7c82611363565b61130e565b91508181835260208401935060208101905083856020840282011115610fa657600080fd5b60005b83811015610fd65781610fbc8882611034565b845260208401935060208301925050600181019050610fa9565b5050505092915050565b600082601f830112610ff157600080fd5b8135611004610fff8261138b565b61130e565b9150808252602083016020830185838301111561102057600080fd5b61102b83828461142d565b50505092915050565b600081359050611043816114ae565b92915050565b60006020828403121561105b57600080fd5b600061106984828501610eb0565b91505092915050565b60008060006060848603121561108757600080fd5b600084013567ffffffffffffffff8111156110a157600080fd5b6110ad86828701610eda565b935050602084013567ffffffffffffffff8111156110ca57600080fd5b6110d686828701610f5d565b92505060406110e786828701611034565b9150509250925092565b60006020828403121561110357600080fd5b600082013567ffffffffffffffff81111561111d57600080fd5b61112984828501610fe0565b91505092915050565b60006020828403121561114457600080fd5b600061115284828501611034565b91505092915050565b6000806040838503121561116e57600080fd5b600061117c85828601611034565b925050602083013567ffffffffffffffff81111561119957600080fd5b6111a585828601610fe0565b9150509250929050565b6111b8816113d3565b82525050565b6111c7816113f7565b82525050565b60006111d8826113b7565b6111e281856113c2565b93506111f281856020860161143c565b6111fb8161146f565b840191505092915050565b60006112136035836113c2565b91507f496e73756666696369656e742062616c616e636520696e20666175636574206660008301527f6f72207769746864726177616c207265717565737400000000000000000000006020830152604082019050919050565b61127581611423565b82525050565b600060208201905061129060008301846111af565b92915050565b60006020820190506112ab60008301846111be565b92915050565b600060208201905081810360008301526112cb81846111cd565b905092915050565b600060208201905081810360008301526112ec81611206565b9050919050565b6000602082019050611308600083018461126c565b92915050565b6000604051905081810181811067ffffffffffffffff8211171561133157600080fd5b8060405250919050565b600067ffffffffffffffff82111561135257600080fd5b602082029050602081019050919050565b600067ffffffffffffffff82111561137a57600080fd5b602082029050602081019050919050565b600067ffffffffffffffff8211156113a257600080fd5b601f19601f8301169050602081019050919050565b600081519050919050565b600082825260208201905092915050565b60006113de82611403565b9050919050565b60006113f082611403565b9050919050565b60008115159050919050565b600073ffffffffffffffffffffffffffffffffffffffff82169050919050565b6000819050919050565b82818337600083830152505050565b60005b8381101561145a57808201518184015260208101905061143f565b83811115611469576000848401525b50505050565b6000601f19601f8301169050919050565b611489816113d3565b811461149457600080fd5b50565b6114a0816113e5565b81146114ab57600080fd5b50565b6114b781611423565b81146114c257600080fd5b5056fea2646970667358221220c2650352f1930780d03947f3fd2510303d1a0cf10ee83296ff779eafc8ac22c664736f6c63430007000033",
  "immutableReferences": {},
  "source": "// SPDX-License-Identifier: GPL-3.0\r\npragma solidity >=0.7.0 <0.9.0;\r\npragma experimental ABIEncoderV2;\r\ncontract DSPF {\r\n  //平台管理者帳號\r\n  address public manager;\r\n  mapping (address => bool) public members;\r\n\r\n  mapping (address => string) public memberHash;\r\n  mapping (uint => string) public cooperationHash;\r\n  mapping (uint => string) public datasetHash;\r\n\r\n  //初始化平台管理者地址\r\n  constructor(){\r\n      manager = msg.sender;\r\n  }\r\n\r\n  //驗證是否為成員\r\n  modifier memberOnly{\r\n      require(members[msg.sender]==true);\r\n      _;\r\n  }\r\n\r\n  //計算資料申請的總數，當作資料要求的ID\r\n  uint public datasetCnt =0;\r\n  \r\n  //計算資料申請的總數，當作資料要求的ID\r\n  uint public cooperationCnt =0;\r\n\r\n  //註冊平台成員\r\n  function register(string memory _memHash) public {\r\n    members[msg.sender]=true;\r\n    memberHash[msg.sender]=_memHash;\r\n  }\r\n\r\n  //取得IPFS平台成員資訊\r\n  function getMember() public view returns (string memory) {\r\n    if(members[msg.sender])\r\n      return memberHash[msg.sender];\r\n    else\r\n      return '';\r\n  }\r\n\r\n  //更新平台成員資訊\r\n  function updateMember(string memory _memHash) public {\r\n    memberHash[msg.sender]=_memHash;\r\n  }\r\n\r\n  //創建提案\r\n  function createCooperation(string memory _cooperationHash) public memberOnly{\r\n    cooperationHash[cooperationCnt] = _cooperationHash;\r\n    cooperationCnt++;\r\n  }\r\n\r\n  //更新提案IPFS的hash\r\n  function updateCooperation(uint cooperationID,string memory _cooperationHash) public memberOnly{\r\n    cooperationHash[cooperationID] = _cooperationHash;\r\n  }\r\n\r\n  //取得提案ID對應的IPFS hash\r\n  function getCooperation(uint cooperationID) public view returns (string memory) {\r\n    return cooperationHash[cooperationID];\r\n  }\r\n\r\n  //創建資料提供者的資料資訊\r\n  function createDataset(string memory _datasetHash) public memberOnly{\r\n    datasetHash[datasetCnt] = _datasetHash;\r\n    datasetCnt++;\r\n  }\r\n\r\n  //取得資料集ID對應的IPFS hash\r\n  function getDataset(uint _datasetID) public view returns (string memory) {\r\n    return datasetHash[_datasetID];\r\n  }\r\n\r\n  //透過加密貨幣參與提案\r\n  function addCooperationWithEth() public payable memberOnly{}\r\n\r\n  //回傳合約餘額\r\n  function getContractBalance() public view returns(uint) {\r\n    return address(this).balance;\r\n  }\r\n\r\n  //分派獎金\r\n  function distributePay(address payable[] memory getEthmembers, uint256[] memory amount,uint256 totalAmount) public{\r\n      require(address(this).balance>=totalAmount,\"Insufficient balance in faucet for withdrawal request\");\r\n      for(uint i = 0;i<getEthmembers.length;i++) \r\n        getEthmembers[i].transfer(amount[i]);\r\n  }\r\n  function kill() public {\r\n        if (msg.sender == manager) selfdestruct(payable(manager)); //銷毀合約並將合約內的金額轉回給合約建立者地址\r\n  }\r\n}\r\n",
  "sourcePath": "C:\\Users\\YunChieh\\Desktop\\DataSharePlatform_IPFS\\DataSharePlatform_IPFS\\src\\contracts\\DSPF.sol",
  "compiler": {
    "name": "solc",
    "version": "0.7.0+commit.9e61f92b.Emscripten.clang"
  },
  "schemaVersion": "3.4.4",
  "updatedAt": "2022-04-06T05:12:57.051Z",
  "networkType": "ethereum",
  "devdoc": {
    "kind": "dev",
    "methods": {},
    "version": 1
  },
  "userdoc": {
    "kind": "user",
    "methods": {},
    "version": 1
  }
}