{
  "contractName": "DSPF",
  "abi": [
    {
      "inputs": [],
      "stateMutability": "nonpayable",
      "type": "constructor"
    },
    {
      "inputs": [],
      "name": "cooWaitingCnt",
      "outputs": [
        {
          "internalType": "uint256",
          "name": "",
          "type": "uint256"
        }
      ],
      "stateMutability": "view",
      "type": "function",
      "constant": true
    },
    {
      "inputs": [
        {
          "internalType": "uint256",
          "name": "",
          "type": "uint256"
        }
      ],
      "name": "cooWaitingVerified",
      "outputs": [
        {
          "internalType": "bool",
          "name": "",
          "type": "bool"
        }
      ],
      "stateMutability": "view",
      "type": "function",
      "constant": true
    },
    {
      "inputs": [],
      "name": "cooperationCnt",
      "outputs": [
        {
          "internalType": "uint256",
          "name": "",
          "type": "uint256"
        }
      ],
      "stateMutability": "view",
      "type": "function",
      "constant": true
    },
    {
      "inputs": [
        {
          "internalType": "uint256",
          "name": "",
          "type": "uint256"
        }
      ],
      "name": "cooperationHash",
      "outputs": [
        {
          "internalType": "string",
          "name": "",
          "type": "string"
        }
      ],
      "stateMutability": "view",
      "type": "function",
      "constant": true
    },
    {
      "inputs": [],
      "name": "datasetCnt",
      "outputs": [
        {
          "internalType": "uint256",
          "name": "",
          "type": "uint256"
        }
      ],
      "stateMutability": "view",
      "type": "function",
      "constant": true
    },
    {
      "inputs": [
        {
          "internalType": "uint256",
          "name": "",
          "type": "uint256"
        }
      ],
      "name": "datasetHash",
      "outputs": [
        {
          "internalType": "string",
          "name": "",
          "type": "string"
        }
      ],
      "stateMutability": "view",
      "type": "function",
      "constant": true
    },
    {
      "inputs": [
        {
          "internalType": "uint256",
          "name": "",
          "type": "uint256"
        }
      ],
      "name": "idtoWait",
      "outputs": [
        {
          "internalType": "address",
          "name": "",
          "type": "address"
        }
      ],
      "stateMutability": "view",
      "type": "function",
      "constant": true
    },
    {
      "inputs": [],
      "name": "manager",
      "outputs": [
        {
          "internalType": "address",
          "name": "",
          "type": "address"
        }
      ],
      "stateMutability": "view",
      "type": "function",
      "constant": true
    },
    {
      "inputs": [
        {
          "internalType": "address",
          "name": "",
          "type": "address"
        }
      ],
      "name": "memberHash",
      "outputs": [
        {
          "internalType": "string",
          "name": "",
          "type": "string"
        }
      ],
      "stateMutability": "view",
      "type": "function",
      "constant": true
    },
    {
      "inputs": [
        {
          "internalType": "address",
          "name": "",
          "type": "address"
        }
      ],
      "name": "members",
      "outputs": [
        {
          "internalType": "bool",
          "name": "",
          "type": "bool"
        }
      ],
      "stateMutability": "view",
      "type": "function",
      "constant": true
    },
    {
      "inputs": [],
      "name": "waitingMemsCnt",
      "outputs": [
        {
          "internalType": "uint256",
          "name": "",
          "type": "uint256"
        }
      ],
      "stateMutability": "view",
      "type": "function",
      "constant": true
    },
    {
      "inputs": [
        {
          "internalType": "address",
          "name": "",
          "type": "address"
        }
      ],
      "name": "watingVerified",
      "outputs": [
        {
          "internalType": "bool",
          "name": "",
          "type": "bool"
        }
      ],
      "stateMutability": "view",
      "type": "function",
      "constant": true
    },
    {
      "inputs": [
        {
          "internalType": "address",
          "name": "addr",
          "type": "address"
        }
      ],
      "name": "registerVerified",
      "outputs": [],
      "stateMutability": "nonpayable",
      "type": "function"
    },
    {
      "inputs": [
        {
          "internalType": "string",
          "name": "_memHash",
          "type": "string"
        }
      ],
      "name": "waitingVerified",
      "outputs": [],
      "stateMutability": "nonpayable",
      "type": "function"
    },
    {
      "inputs": [],
      "name": "getMember",
      "outputs": [
        {
          "internalType": "string",
          "name": "",
          "type": "string"
        }
      ],
      "stateMutability": "view",
      "type": "function",
      "constant": true
    },
    {
      "inputs": [
        {
          "internalType": "string",
          "name": "_memHash",
          "type": "string"
        }
      ],
      "name": "updateMember",
      "outputs": [],
      "stateMutability": "nonpayable",
      "type": "function"
    },
    {
      "inputs": [
        {
          "internalType": "string",
          "name": "_cooperationHash",
          "type": "string"
        }
      ],
      "name": "createCooperation",
      "outputs": [],
      "stateMutability": "nonpayable",
      "type": "function"
    },
    {
      "inputs": [
        {
          "internalType": "uint256",
          "name": "_cooperationID",
          "type": "uint256"
        }
      ],
      "name": "verifyCooperation",
      "outputs": [],
      "stateMutability": "nonpayable",
      "type": "function"
    },
    {
      "inputs": [
        {
          "internalType": "uint256",
          "name": "cooperationID",
          "type": "uint256"
        },
        {
          "internalType": "string",
          "name": "_cooperationHash",
          "type": "string"
        }
      ],
      "name": "updateCooperation",
      "outputs": [],
      "stateMutability": "nonpayable",
      "type": "function"
    },
    {
      "inputs": [
        {
          "internalType": "uint256",
          "name": "cooperationID",
          "type": "uint256"
        }
      ],
      "name": "getCooperation",
      "outputs": [
        {
          "internalType": "string",
          "name": "",
          "type": "string"
        }
      ],
      "stateMutability": "view",
      "type": "function",
      "constant": true
    },
    {
      "inputs": [
        {
          "internalType": "string",
          "name": "_datasetHash",
          "type": "string"
        }
      ],
      "name": "createDataset",
      "outputs": [],
      "stateMutability": "nonpayable",
      "type": "function"
    },
    {
      "inputs": [
        {
          "internalType": "uint256",
          "name": "_datasetID",
          "type": "uint256"
        }
      ],
      "name": "getDataset",
      "outputs": [
        {
          "internalType": "string",
          "name": "",
          "type": "string"
        }
      ],
      "stateMutability": "view",
      "type": "function",
      "constant": true
    },
    {
      "inputs": [],
      "name": "addCooperationWithEth",
      "outputs": [],
      "stateMutability": "payable",
      "type": "function",
      "payable": true
    },
    {
      "inputs": [],
      "name": "getContractBalance",
      "outputs": [
        {
          "internalType": "uint256",
          "name": "",
          "type": "uint256"
        }
      ],
      "stateMutability": "view",
      "type": "function",
      "constant": true
    },
    {
      "inputs": [
        {
          "internalType": "address payable[]",
          "name": "getEthmembers",
          "type": "address[]"
        },
        {
          "internalType": "uint256[]",
          "name": "amount",
          "type": "uint256[]"
        },
        {
          "internalType": "uint256",
          "name": "totalAmount",
          "type": "uint256"
        }
      ],
      "name": "distributePay",
      "outputs": [],
      "stateMutability": "nonpayable",
      "type": "function"
    },
    {
      "inputs": [],
      "name": "kill",
      "outputs": [],
      "stateMutability": "nonpayable",
      "type": "function"
    }
  ],
  "bytecode": "0x6080604052600060085560006009556000600a556000600b5534801561002457600080fd5b50336000806101000a81548173ffffffffffffffffffffffffffffffffffffffff021916908373ffffffffffffffffffffffffffffffffffffffff16021790555061192b806100746000396000f3fe6080604052600436106101815760003560e01c806373e62afe116100d1578063d4554c4c1161008a578063ee00422111610064578063ee00422114610587578063f0fab6d4146105c4578063ffb6212a146105ed578063fff9da7e1461061857610181565b8063d4554c4c146104e2578063d64f1af11461050d578063df51a98a1461054a57610181565b806373e62afe146103e35780638f6a11851461040c578063995988a114610449578063a955743014610453578063b1532cf61461047c578063c56f7f80146104a557610181565b806341c0e1b51161013e57806361805f441161011857806361805f44146103135780636ec1988d1461033e5780636f9fb98a1461037b578063724d9e36146103a657610181565b806341c0e1b5146102a8578063481c6a75146102bf57806348f0f6f0146102ea57610181565b80630274c0941461018657806308ae4b0c146101b15780630b011093146101ee5780630ec729871461021757806314a10b4d14610240578063341565f81461026b575b600080fd5b34801561019257600080fd5b5061019b610641565b6040516101a891906116e1565b60405180910390f35b3480156101bd57600080fd5b506101d860048036038101906101d39190611479565b61078a565b6040516101e591906116c6565b60405180910390f35b3480156101fa57600080fd5b5061021560048036038101906102109190611479565b6107aa565b005b34801561022357600080fd5b5061023e60048036038101906102399190611521565b61085c565b005b34801561024c57600080fd5b506102556108b3565b6040516102629190611723565b60405180910390f35b34801561027757600080fd5b50610292600480360381019061028d9190611562565b6108b9565b60405161029f91906116e1565b60405180910390f35b3480156102b457600080fd5b506102bd61096e565b005b3480156102cb57600080fd5b506102d46109fd565b6040516102e191906116ab565b60405180910390f35b3480156102f657600080fd5b50610311600480360381019061030c9190611521565b610a21565b005b34801561031f57600080fd5b50610328610b36565b6040516103359190611723565b60405180910390f35b34801561034a57600080fd5b5061036560048036038101906103609190611562565b610b3c565b60405161037291906116e1565b60405180910390f35b34801561038757600080fd5b50610390610bec565b60405161039d9190611723565b60405180910390f35b3480156103b257600080fd5b506103cd60048036038101906103c89190611562565b610bf4565b6040516103da91906116ab565b60405180910390f35b3480156103ef57600080fd5b5061040a600480360381019061040591906114a2565b610c27565b005b34801561041857600080fd5b50610433600480360381019061042e9190611562565b610cf6565b60405161044091906116e1565b60405180910390f35b610451610da6565b005b34801561045f57600080fd5b5061047a6004803603810190610475919061158b565b610e05565b005b34801561048857600080fd5b506104a3600480360381019061049e9190611562565b610e8e565b005b3480156104b157600080fd5b506104cc60048036038101906104c79190611479565b610f1a565b6040516104d991906116c6565b60405180910390f35b3480156104ee57600080fd5b506104f7610f3a565b6040516105049190611723565b60405180910390f35b34801561051957600080fd5b50610534600480360381019061052f9190611562565b610f40565b60405161054191906116c6565b60405180910390f35b34801561055657600080fd5b50610571600480360381019061056c9190611479565b610f60565b60405161057e91906116e1565b60405180910390f35b34801561059357600080fd5b506105ae60048036038101906105a99190611562565b611010565b6040516105bb91906116e1565b60405180910390f35b3480156105d057600080fd5b506105eb60048036038101906105e69190611521565b6110c5565b005b3480156105f957600080fd5b50610602611161565b60405161060f9190611723565b60405180910390f35b34801561062457600080fd5b5061063f600480360381019061063a9190611521565b611167565b005b6060600160003373ffffffffffffffffffffffffffffffffffffffff1673ffffffffffffffffffffffffffffffffffffffff16815260200190815260200160002060009054906101000a900460ff161561077457600460003373ffffffffffffffffffffffffffffffffffffffff1673ffffffffffffffffffffffffffffffffffffffff1681526020019081526020016000208054600181600116156101000203166002900480601f0160208091040260200160405190810160405280929190818152602001828054600181600116156101000203166002900480156107685780601f1061073d57610100808354040283529160200191610768565b820191906000526020600020905b81548152906001019060200180831161074b57829003601f168201915b50505050509050610787565b6040518060200160405280600081525090505b90565b60016020528060005260406000206000915054906101000a900460ff1681565b6000600360008373ffffffffffffffffffffffffffffffffffffffff1673ffffffffffffffffffffffffffffffffffffffff16815260200190815260200160002060006101000a81548160ff02191690831515021790555060018060008373ffffffffffffffffffffffffffffffffffffffff1673ffffffffffffffffffffffffffffffffffffffff16815260200190815260200160002060006101000a81548160ff02191690831515021790555050565b80600460003373ffffffffffffffffffffffffffffffffffffffff1673ffffffffffffffffffffffffffffffffffffffff16815260200190815260200160002090805190602001906108af929190611243565b5050565b60085481565b6060600660008381526020019081526020016000208054600181600116156101000203166002900480601f0160208091040260200160405190810160405280929190818152602001828054600181600116156101000203166002900480156109625780601f1061093757610100808354040283529160200191610962565b820191906000526020600020905b81548152906001019060200180831161094557829003601f168201915b50505050509050919050565b60008054906101000a900473ffffffffffffffffffffffffffffffffffffffff1673ffffffffffffffffffffffffffffffffffffffff163373ffffffffffffffffffffffffffffffffffffffff1614156109fb5760008054906101000a900473ffffffffffffffffffffffffffffffffffffffff1673ffffffffffffffffffffffffffffffffffffffff16ff5b565b60008054906101000a900473ffffffffffffffffffffffffffffffffffffffff1681565b3360026000600854815260200190815260200160002060006101000a81548173ffffffffffffffffffffffffffffffffffffffff021916908373ffffffffffffffffffffffffffffffffffffffff1602179055506001600360003373ffffffffffffffffffffffffffffffffffffffff1673ffffffffffffffffffffffffffffffffffffffff16815260200190815260200160002060006101000a81548160ff02191690831515021790555080600460003373ffffffffffffffffffffffffffffffffffffffff1673ffffffffffffffffffffffffffffffffffffffff1681526020019081526020016000209080519060200190610b20929190611243565b5060086000815480929190600101919050555050565b600b5481565b60066020528060005260406000206000915090508054600181600116156101000203166002900480601f016020809104026020016040519081016040528092919081815260200182805460018160011615610100020316600290048015610be45780601f10610bb957610100808354040283529160200191610be4565b820191906000526020600020905b815481529060010190602001808311610bc757829003601f168201915b505050505081565b600047905090565b60026020528060005260406000206000915054906101000a900473ffffffffffffffffffffffffffffffffffffffff1681565b80471015610c6a576040517f08c379a0000000000000000000000000000000000000000000000000000000008152600401610c6190611703565b60405180910390fd5b60005b8351811015610cf057838181518110610c8257fe5b602002602001015173ffffffffffffffffffffffffffffffffffffffff166108fc848381518110610caf57fe5b60200260200101519081150290604051600060405180830381858888f19350505050158015610ce2573d6000803e3d6000fd5b508080600101915050610c6d565b50505050565b60076020528060005260406000206000915090508054600181600116156101000203166002900480601f016020809104026020016040519081016040528092919081815260200182805460018160011615610100020316600290048015610d9e5780601f10610d7357610100808354040283529160200191610d9e565b820191906000526020600020905b815481529060010190602001808311610d8157829003601f168201915b505050505081565b60011515600160003373ffffffffffffffffffffffffffffffffffffffff1673ffffffffffffffffffffffffffffffffffffffff16815260200190815260200160002060009054906101000a900460ff16151514610e0357600080fd5b565b60011515600160003373ffffffffffffffffffffffffffffffffffffffff1673ffffffffffffffffffffffffffffffffffffffff16815260200190815260200160002060009054906101000a900460ff16151514610e6257600080fd5b80600660008481526020019081526020016000209080519060200190610e89929190611243565b505050565b60011515600160003373ffffffffffffffffffffffffffffffffffffffff1673ffffffffffffffffffffffffffffffffffffffff16815260200190815260200160002060009054906101000a900460ff16151514610eeb57600080fd5b60006005600083815260200190815260200160002060006101000a81548160ff02191690831515021790555050565b60036020528060005260406000206000915054906101000a900460ff1681565b600a5481565b60056020528060005260406000206000915054906101000a900460ff1681565b60046020528060005260406000206000915090508054600181600116156101000203166002900480601f0160208091040260200160405190810160405280929190818152602001828054600181600116156101000203166002900480156110085780601f10610fdd57610100808354040283529160200191611008565b820191906000526020600020905b815481529060010190602001808311610feb57829003601f168201915b505050505081565b6060600760008381526020019081526020016000208054600181600116156101000203166002900480601f0160208091040260200160405190810160405280929190818152602001828054600181600116156101000203166002900480156110b95780601f1061108e576101008083540402835291602001916110b9565b820191906000526020600020905b81548152906001019060200180831161109c57829003601f168201915b50505050509050919050565b60011515600160003373ffffffffffffffffffffffffffffffffffffffff1673ffffffffffffffffffffffffffffffffffffffff16815260200190815260200160002060009054906101000a900460ff1615151461112257600080fd5b80600760006009548152602001908152602001600020908051906020019061114b929190611243565b5060096000815480929190600101919050555050565b60095481565b60011515600160003373ffffffffffffffffffffffffffffffffffffffff1673ffffffffffffffffffffffffffffffffffffffff16815260200190815260200160002060009054906101000a900460ff161515146111c457600080fd5b8060066000600b54815260200190815260200160002090805190602001906111ed929190611243565b50600160056000600a54815260200190815260200160002060006101000a81548160ff021916908315150217905550600a60008154809291906001019190505550600b6000815480929190600101919050555050565b828054600181600116156101000203166002900490600052602060002090601f016020900481019282601f1061128457805160ff19168380011785556112b2565b828001600101855582156112b2579182015b828111156112b1578251825591602001919060010190611296565b5b5090506112bf91906112c3565b5090565b5b808211156112dc5760008160009055506001016112c4565b5090565b6000813590506112ef816118b0565b92915050565b600081359050611304816118c7565b92915050565b600082601f83011261131b57600080fd5b813561132e6113298261176b565b61173e565b9150818183526020840193506020810190508385602084028201111561135357600080fd5b60005b83811015611383578161136988826112f5565b845260208401935060208301925050600181019050611356565b5050505092915050565b600082601f83011261139e57600080fd5b81356113b16113ac82611793565b61173e565b915081818352602084019350602081019050838560208402820111156113d657600080fd5b60005b8381101561140657816113ec8882611464565b8452602084019350602083019250506001810190506113d9565b5050505092915050565b600082601f83011261142157600080fd5b813561143461142f826117bb565b61173e565b9150808252602083016020830185838301111561145057600080fd5b61145b83828461185d565b50505092915050565b600081359050611473816118de565b92915050565b60006020828403121561148b57600080fd5b6000611499848285016112e0565b91505092915050565b6000806000606084860312156114b757600080fd5b600084013567ffffffffffffffff8111156114d157600080fd5b6114dd8682870161130a565b935050602084013567ffffffffffffffff8111156114fa57600080fd5b6115068682870161138d565b925050604061151786828701611464565b9150509250925092565b60006020828403121561153357600080fd5b600082013567ffffffffffffffff81111561154d57600080fd5b61155984828501611410565b91505092915050565b60006020828403121561157457600080fd5b600061158284828501611464565b91505092915050565b6000806040838503121561159e57600080fd5b60006115ac85828601611464565b925050602083013567ffffffffffffffff8111156115c957600080fd5b6115d585828601611410565b9150509250929050565b6115e881611803565b82525050565b6115f781611827565b82525050565b6000611608826117e7565b61161281856117f2565b935061162281856020860161186c565b61162b8161189f565b840191505092915050565b60006116436035836117f2565b91507f496e73756666696369656e742062616c616e636520696e20666175636574206660008301527f6f72207769746864726177616c207265717565737400000000000000000000006020830152604082019050919050565b6116a581611853565b82525050565b60006020820190506116c060008301846115df565b92915050565b60006020820190506116db60008301846115ee565b92915050565b600060208201905081810360008301526116fb81846115fd565b905092915050565b6000602082019050818103600083015261171c81611636565b9050919050565b6000602082019050611738600083018461169c565b92915050565b6000604051905081810181811067ffffffffffffffff8211171561176157600080fd5b8060405250919050565b600067ffffffffffffffff82111561178257600080fd5b602082029050602081019050919050565b600067ffffffffffffffff8211156117aa57600080fd5b602082029050602081019050919050565b600067ffffffffffffffff8211156117d257600080fd5b601f19601f8301169050602081019050919050565b600081519050919050565b600082825260208201905092915050565b600061180e82611833565b9050919050565b600061182082611833565b9050919050565b60008115159050919050565b600073ffffffffffffffffffffffffffffffffffffffff82169050919050565b6000819050919050565b82818337600083830152505050565b60005b8381101561188a57808201518184015260208101905061186f565b83811115611899576000848401525b50505050565b6000601f19601f8301169050919050565b6118b981611803565b81146118c457600080fd5b50565b6118d081611815565b81146118db57600080fd5b50565b6118e781611853565b81146118f257600080fd5b5056fea2646970667358221220ef0c0bacb32ba5c523b7b5f326b37873b41239f8a2c0b6f99a625f4b4accacb464736f6c63430007000033",
  "immutableReferences": {},
  "source": "// SPDX-License-Identifier: GPL-3.0\r\npragma solidity >=0.7.0 <0.9.0;\r\npragma experimental ABIEncoderV2;\r\ncontract DSPF {\r\n  //\r\n  address public manager;\r\n  mapping (address => bool) public members;\r\n  mapping (uint => address) public idtoWait;\r\n  mapping (address => bool) public watingVerified;\r\n\r\n  mapping (address => string) public memberHash;\r\n\r\n  mapping (uint => bool) public cooWaitingVerified;\r\n  mapping (uint => string) public cooperationHash;\r\n  mapping (uint => string) public datasetHash;\r\n\r\n\r\n  //\r\n  constructor(){\r\n      manager = msg.sender;\r\n  }\r\n\r\n  //\r\n  modifier memberOnly{\r\n      require(members[msg.sender]==true);\r\n      _;\r\n  }\r\n  //\r\n  uint public waitingMemsCnt =0;\r\n  \r\n  //ID\r\n  uint public datasetCnt =0;\r\n  \r\n  //ID\r\n  uint public cooWaitingCnt =0;\r\n  uint public cooperationCnt =0;\r\n\r\n\r\n  //\r\n  function registerVerified(address addr) public {\r\n    watingVerified[addr]=false;\r\n    members[addr]=true;\r\n  }\r\n  //\r\n  function waitingVerified(string memory _memHash) public {\r\n    idtoWait[waitingMemsCnt]=msg.sender;\r\n    watingVerified[msg.sender]=true;\r\n    memberHash[msg.sender]=_memHash;\r\n    waitingMemsCnt++;\r\n  }\r\n\r\n  //IPFS\r\n  function getMember() public view returns (string memory) {\r\n    if(members[msg.sender])\r\n      return memberHash[msg.sender];\r\n    else\r\n      return '';\r\n  }\r\n\r\n  //\r\n  function updateMember(string memory _memHash) public {\r\n    memberHash[msg.sender]=_memHash;\r\n  }\r\n\r\n  //\r\n  function createCooperation(string memory _cooperationHash) public memberOnly{\r\n    cooperationHash[cooperationCnt] = _cooperationHash;\r\n    cooWaitingVerified[cooWaitingCnt]=true;\r\n    cooWaitingCnt++;\r\n    cooperationCnt++;\r\n  }\r\n\r\n  //\r\n  function verifyCooperation(uint _cooperationID) public memberOnly{\r\n    cooWaitingVerified[_cooperationID]=false;\r\n  }\r\n\r\n  //IPFShash\r\n  function updateCooperation(uint cooperationID,string memory _cooperationHash) public memberOnly{\r\n    cooperationHash[cooperationID] = _cooperationHash;\r\n  }\r\n\r\n  //IDIPFS hash\r\n  function getCooperation(uint cooperationID) public view returns (string memory) {\r\n    return cooperationHash[cooperationID];\r\n  }\r\n\r\n  //\r\n  function createDataset(string memory _datasetHash) public memberOnly{\r\n    datasetHash[datasetCnt] = _datasetHash;\r\n    datasetCnt++;\r\n  }\r\n\r\n  //IDIPFS hash\r\n  function getDataset(uint _datasetID) public view returns (string memory) {\r\n    return datasetHash[_datasetID];\r\n  }\r\n\r\n  //\r\n  function addCooperationWithEth() public payable memberOnly{}\r\n\r\n  //\r\n  function getContractBalance() public view returns(uint) {\r\n    return address(this).balance;\r\n  }\r\n\r\n  //\r\n  function distributePay(address payable[] memory getEthmembers, uint256[] memory amount,uint256 totalAmount) public{\r\n      require(address(this).balance>=totalAmount,\"Insufficient balance in faucet for withdrawal request\");\r\n      for(uint i = 0;i<getEthmembers.length;i++) \r\n        getEthmembers[i].transfer(amount[i]);\r\n  }\r\n  function kill() public {\r\n        if (msg.sender == manager) selfdestruct(payable(manager)); //\r\n  }\r\n}\r\n",
  "sourcePath": "C:\\Users\\YunChieh\\Desktop\\DataSharePlatform_IPFS\\DataSharePlatform_IPFS\\src\\contracts\\DSPF.sol",
  "compiler": {
    "name": "solc",
    "version": "0.7.0+commit.9e61f92b.Emscripten.clang"
  },
  "schemaVersion": "3.4.4",
  "updatedAt": "2022-04-28T09:24:55.656Z",
  "networkType": "ethereum",
  "devdoc": {
    "kind": "dev",
    "methods": {},
    "version": 1
  },
  "userdoc": {
    "kind": "user",
    "methods": {},
    "version": 1
  }
}