{
  "contractName": "DSPF",
  "abi": [
    {
      "inputs": [],
      "stateMutability": "nonpayable",
      "type": "constructor"
    },
    {
      "inputs": [],
      "name": "cooperationCnt",
      "outputs": [
        {
          "internalType": "uint256",
          "name": "",
          "type": "uint256"
        }
      ],
      "stateMutability": "view",
      "type": "function",
      "constant": true
    },
    {
      "inputs": [
        {
          "internalType": "uint256",
          "name": "",
          "type": "uint256"
        }
      ],
      "name": "cooperationHash",
      "outputs": [
        {
          "internalType": "string",
          "name": "",
          "type": "string"
        }
      ],
      "stateMutability": "view",
      "type": "function",
      "constant": true
    },
    {
      "inputs": [],
      "name": "datasetCnt",
      "outputs": [
        {
          "internalType": "uint256",
          "name": "",
          "type": "uint256"
        }
      ],
      "stateMutability": "view",
      "type": "function",
      "constant": true
    },
    {
      "inputs": [
        {
          "internalType": "uint256",
          "name": "",
          "type": "uint256"
        }
      ],
      "name": "datasetHash",
      "outputs": [
        {
          "internalType": "string",
          "name": "",
          "type": "string"
        }
      ],
      "stateMutability": "view",
      "type": "function",
      "constant": true
    },
    {
      "inputs": [],
      "name": "manager",
      "outputs": [
        {
          "internalType": "address",
          "name": "",
          "type": "address"
        }
      ],
      "stateMutability": "view",
      "type": "function",
      "constant": true
    },
    {
      "inputs": [
        {
          "internalType": "address",
          "name": "",
          "type": "address"
        }
      ],
      "name": "memberHash",
      "outputs": [
        {
          "internalType": "string",
          "name": "",
          "type": "string"
        }
      ],
      "stateMutability": "view",
      "type": "function",
      "constant": true
    },
    {
      "inputs": [
        {
          "internalType": "address",
          "name": "",
          "type": "address"
        }
      ],
      "name": "members",
      "outputs": [
        {
          "internalType": "bool",
          "name": "",
          "type": "bool"
        }
      ],
      "stateMutability": "view",
      "type": "function",
      "constant": true
    },
    {
      "inputs": [
        {
          "internalType": "string",
          "name": "_memHash",
          "type": "string"
        }
      ],
      "name": "register",
      "outputs": [],
      "stateMutability": "nonpayable",
      "type": "function"
    },
    {
      "inputs": [],
      "name": "getMember",
      "outputs": [
        {
          "internalType": "string",
          "name": "",
          "type": "string"
        }
      ],
      "stateMutability": "view",
      "type": "function",
      "constant": true
    },
    {
      "inputs": [
        {
          "internalType": "string",
          "name": "_memHash",
          "type": "string"
        }
      ],
      "name": "updateMember",
      "outputs": [],
      "stateMutability": "nonpayable",
      "type": "function"
    },
    {
      "inputs": [
        {
          "internalType": "string",
          "name": "_cooperationHash",
          "type": "string"
        }
      ],
      "name": "createCooperation",
      "outputs": [],
      "stateMutability": "nonpayable",
      "type": "function"
    },
    {
      "inputs": [
        {
          "internalType": "uint256",
          "name": "cooperationID",
          "type": "uint256"
        },
        {
          "internalType": "string",
          "name": "_cooperationHash",
          "type": "string"
        }
      ],
      "name": "updateCooperation",
      "outputs": [],
      "stateMutability": "nonpayable",
      "type": "function"
    },
    {
      "inputs": [
        {
          "internalType": "uint256",
          "name": "cooperationID",
          "type": "uint256"
        }
      ],
      "name": "getCooperation",
      "outputs": [
        {
          "internalType": "string",
          "name": "",
          "type": "string"
        }
      ],
      "stateMutability": "view",
      "type": "function",
      "constant": true
    },
    {
      "inputs": [
        {
          "internalType": "string",
          "name": "_datasetHash",
          "type": "string"
        }
      ],
      "name": "createDataset",
      "outputs": [],
      "stateMutability": "nonpayable",
      "type": "function"
    },
    {
      "inputs": [
        {
          "internalType": "uint256",
          "name": "_datasetID",
          "type": "uint256"
        }
      ],
      "name": "getDataset",
      "outputs": [
        {
          "internalType": "string",
          "name": "",
          "type": "string"
        }
      ],
      "stateMutability": "view",
      "type": "function",
      "constant": true
    },
    {
      "inputs": [],
      "name": "addCooperationWithEth",
      "outputs": [],
      "stateMutability": "payable",
      "type": "function",
      "payable": true
    },
    {
      "inputs": [],
      "name": "getContractBalance",
      "outputs": [
        {
          "internalType": "uint256",
          "name": "",
          "type": "uint256"
        }
      ],
      "stateMutability": "view",
      "type": "function",
      "constant": true
    },
    {
      "inputs": [
        {
          "internalType": "address payable[]",
          "name": "members",
          "type": "address[]"
        },
        {
          "internalType": "uint256[]",
          "name": "amount",
          "type": "uint256[]"
        },
        {
          "internalType": "uint256",
          "name": "totalAmount",
          "type": "uint256"
        }
      ],
      "name": "distributePay",
      "outputs": [],
      "stateMutability": "nonpayable",
      "type": "function"
    }
  ],
  "bytecode": "0x60806040526000600555600060065534801561001a57600080fd5b50336000806101000a81548173ffffffffffffffffffffffffffffffffffffffff021916908373ffffffffffffffffffffffffffffffffffffffff16021790555061144a8061006a6000396000f3fe6080604052600436106101095760003560e01c80638f6a118511610095578063ee00422111610064578063ee00422114610370578063f0fab6d4146103ad578063f2c298be146103d6578063ffb6212a146103ff578063fff9da7e1461042a57610109565b80638f6a1185146102c3578063995988a114610300578063a95574301461030a578063df51a98a1461033357610109565b8063481c6a75116100dc578063481c6a75146101dc57806361805f44146102075780636ec1988d146102325780636f9fb98a1461026f57806373e62afe1461029a57610109565b80630274c0941461010e57806308ae4b0c146101395780630ec7298714610176578063341565f81461019f575b600080fd5b34801561011a57600080fd5b50610123610453565b6040516101309190611200565b60405180910390f35b34801561014557600080fd5b50610160600480360381019061015b9190610f98565b61059c565b60405161016d91906111e5565b60405180910390f35b34801561018257600080fd5b5061019d60048036038101906101989190611040565b6105bc565b005b3480156101ab57600080fd5b506101c660048036038101906101c19190611081565b610613565b6040516101d39190611200565b60405180910390f35b3480156101e857600080fd5b506101f16106c8565b6040516101fe91906111ca565b60405180910390f35b34801561021357600080fd5b5061021c6106ec565b6040516102299190611242565b60405180910390f35b34801561023e57600080fd5b5061025960048036038101906102549190611081565b6106f2565b6040516102669190611200565b60405180910390f35b34801561027b57600080fd5b506102846107a2565b6040516102919190611242565b60405180910390f35b3480156102a657600080fd5b506102c160048036038101906102bc9190610fc1565b6107aa565b005b3480156102cf57600080fd5b506102ea60048036038101906102e59190611081565b610879565b6040516102f79190611200565b60405180910390f35b610308610929565b005b34801561031657600080fd5b50610331600480360381019061032c91906110aa565b610988565b005b34801561033f57600080fd5b5061035a60048036038101906103559190610f98565b610a11565b6040516103679190611200565b60405180910390f35b34801561037c57600080fd5b5061039760048036038101906103929190611081565b610ac1565b6040516103a49190611200565b60405180910390f35b3480156103b957600080fd5b506103d460048036038101906103cf9190611040565b610b76565b005b3480156103e257600080fd5b506103fd60048036038101906103f89190611040565b610c12565b005b34801561040b57600080fd5b50610414610cc0565b6040516104219190611242565b60405180910390f35b34801561043657600080fd5b50610451600480360381019061044c9190611040565b610cc6565b005b6060600160003373ffffffffffffffffffffffffffffffffffffffff1673ffffffffffffffffffffffffffffffffffffffff16815260200190815260200160002060009054906101000a900460ff161561058657600260003373ffffffffffffffffffffffffffffffffffffffff1673ffffffffffffffffffffffffffffffffffffffff1681526020019081526020016000208054600181600116156101000203166002900480601f01602080910402602001604051908101604052809291908181526020018280546001816001161561010002031660029004801561057a5780601f1061054f5761010080835404028352916020019161057a565b820191906000526020600020905b81548152906001019060200180831161055d57829003601f168201915b50505050509050610599565b6040518060200160405280600081525090505b90565b60016020528060005260406000206000915054906101000a900460ff1681565b80600260003373ffffffffffffffffffffffffffffffffffffffff1673ffffffffffffffffffffffffffffffffffffffff168152602001908152602001600020908051906020019061060f929190610d62565b5050565b6060600360008381526020019081526020016000208054600181600116156101000203166002900480601f0160208091040260200160405190810160405280929190818152602001828054600181600116156101000203166002900480156106bc5780601f10610691576101008083540402835291602001916106bc565b820191906000526020600020905b81548152906001019060200180831161069f57829003601f168201915b50505050509050919050565b60008054906101000a900473ffffffffffffffffffffffffffffffffffffffff1681565b60065481565b60036020528060005260406000206000915090508054600181600116156101000203166002900480601f01602080910402602001604051908101604052809291908181526020018280546001816001161561010002031660029004801561079a5780601f1061076f5761010080835404028352916020019161079a565b820191906000526020600020905b81548152906001019060200180831161077d57829003601f168201915b505050505081565b600047905090565b804710156107ed576040517f08c379a00000000000000000000000000000000000000000000000000000000081526004016107e490611222565b60405180910390fd5b60005b83518110156108735783818151811061080557fe5b602002602001015173ffffffffffffffffffffffffffffffffffffffff166108fc84838151811061083257fe5b60200260200101519081150290604051600060405180830381858888f19350505050158015610865573d6000803e3d6000fd5b5080806001019150506107f0565b50505050565b60046020528060005260406000206000915090508054600181600116156101000203166002900480601f0160208091040260200160405190810160405280929190818152602001828054600181600116156101000203166002900480156109215780601f106108f657610100808354040283529160200191610921565b820191906000526020600020905b81548152906001019060200180831161090457829003601f168201915b505050505081565b60011515600160003373ffffffffffffffffffffffffffffffffffffffff1673ffffffffffffffffffffffffffffffffffffffff16815260200190815260200160002060009054906101000a900460ff1615151461098657600080fd5b565b60011515600160003373ffffffffffffffffffffffffffffffffffffffff1673ffffffffffffffffffffffffffffffffffffffff16815260200190815260200160002060009054906101000a900460ff161515146109e557600080fd5b80600360008481526020019081526020016000209080519060200190610a0c929190610d62565b505050565b60026020528060005260406000206000915090508054600181600116156101000203166002900480601f016020809104026020016040519081016040528092919081815260200182805460018160011615610100020316600290048015610ab95780601f10610a8e57610100808354040283529160200191610ab9565b820191906000526020600020905b815481529060010190602001808311610a9c57829003601f168201915b505050505081565b6060600460008381526020019081526020016000208054600181600116156101000203166002900480601f016020809104026020016040519081016040528092919081815260200182805460018160011615610100020316600290048015610b6a5780601f10610b3f57610100808354040283529160200191610b6a565b820191906000526020600020905b815481529060010190602001808311610b4d57829003601f168201915b50505050509050919050565b60011515600160003373ffffffffffffffffffffffffffffffffffffffff1673ffffffffffffffffffffffffffffffffffffffff16815260200190815260200160002060009054906101000a900460ff16151514610bd357600080fd5b806004600060055481526020019081526020016000209080519060200190610bfc929190610d62565b5060056000815480929190600101919050555050565b60018060003373ffffffffffffffffffffffffffffffffffffffff1673ffffffffffffffffffffffffffffffffffffffff16815260200190815260200160002060006101000a81548160ff02191690831515021790555080600260003373ffffffffffffffffffffffffffffffffffffffff1673ffffffffffffffffffffffffffffffffffffffff1681526020019081526020016000209080519060200190610cbc929190610d62565b5050565b60055481565b60011515600160003373ffffffffffffffffffffffffffffffffffffffff1673ffffffffffffffffffffffffffffffffffffffff16815260200190815260200160002060009054906101000a900460ff16151514610d2357600080fd5b806003600060065481526020019081526020016000209080519060200190610d4c929190610d62565b5060066000815480929190600101919050555050565b828054600181600116156101000203166002900490600052602060002090601f016020900481019282601f10610da357805160ff1916838001178555610dd1565b82800160010185558215610dd1579182015b82811115610dd0578251825591602001919060010190610db5565b5b509050610dde9190610de2565b5090565b5b80821115610dfb576000816000905550600101610de3565b5090565b600081359050610e0e816113cf565b92915050565b600081359050610e23816113e6565b92915050565b600082601f830112610e3a57600080fd5b8135610e4d610e488261128a565b61125d565b91508181835260208401935060208101905083856020840282011115610e7257600080fd5b60005b83811015610ea25781610e888882610e14565b845260208401935060208301925050600181019050610e75565b5050505092915050565b600082601f830112610ebd57600080fd5b8135610ed0610ecb826112b2565b61125d565b91508181835260208401935060208101905083856020840282011115610ef557600080fd5b60005b83811015610f255781610f0b8882610f83565b845260208401935060208301925050600181019050610ef8565b5050505092915050565b600082601f830112610f4057600080fd5b8135610f53610f4e826112da565b61125d565b91508082526020830160208301858383011115610f6f57600080fd5b610f7a83828461137c565b50505092915050565b600081359050610f92816113fd565b92915050565b600060208284031215610faa57600080fd5b6000610fb884828501610dff565b91505092915050565b600080600060608486031215610fd657600080fd5b600084013567ffffffffffffffff811115610ff057600080fd5b610ffc86828701610e29565b935050602084013567ffffffffffffffff81111561101957600080fd5b61102586828701610eac565b925050604061103686828701610f83565b9150509250925092565b60006020828403121561105257600080fd5b600082013567ffffffffffffffff81111561106c57600080fd5b61107884828501610f2f565b91505092915050565b60006020828403121561109357600080fd5b60006110a184828501610f83565b91505092915050565b600080604083850312156110bd57600080fd5b60006110cb85828601610f83565b925050602083013567ffffffffffffffff8111156110e857600080fd5b6110f485828601610f2f565b9150509250929050565b61110781611322565b82525050565b61111681611346565b82525050565b600061112782611306565b6111318185611311565b935061114181856020860161138b565b61114a816113be565b840191505092915050565b6000611162603583611311565b91507f496e73756666696369656e742062616c616e636520696e20666175636574206660008301527f6f72207769746864726177616c207265717565737400000000000000000000006020830152604082019050919050565b6111c481611372565b82525050565b60006020820190506111df60008301846110fe565b92915050565b60006020820190506111fa600083018461110d565b92915050565b6000602082019050818103600083015261121a818461111c565b905092915050565b6000602082019050818103600083015261123b81611155565b9050919050565b600060208201905061125760008301846111bb565b92915050565b6000604051905081810181811067ffffffffffffffff8211171561128057600080fd5b8060405250919050565b600067ffffffffffffffff8211156112a157600080fd5b602082029050602081019050919050565b600067ffffffffffffffff8211156112c957600080fd5b602082029050602081019050919050565b600067ffffffffffffffff8211156112f157600080fd5b601f19601f8301169050602081019050919050565b600081519050919050565b600082825260208201905092915050565b600061132d82611352565b9050919050565b600061133f82611352565b9050919050565b60008115159050919050565b600073ffffffffffffffffffffffffffffffffffffffff82169050919050565b6000819050919050565b82818337600083830152505050565b60005b838110156113a957808201518184015260208101905061138e565b838111156113b8576000848401525b50505050565b6000601f19601f8301169050919050565b6113d881611322565b81146113e357600080fd5b50565b6113ef81611334565b81146113fa57600080fd5b50565b61140681611372565b811461141157600080fd5b5056fea2646970667358221220c82a258d8fd9aef7db86f429ef2f2eaf8822a50d683dcceac86e430e7511de0564736f6c63430007000033",
  "immutableReferences": {},
  "source": "pragma solidity >=0.7.0 <0.9.0;\r\npragma experimental ABIEncoderV2;\r\ncontract DSPF {\r\n  //平台管理者帳號\r\n  address public manager;\r\n  mapping (address => bool) public members;\r\n  mapping (address => string) public memberHash;\r\n  mapping (uint => string) public cooperationHash;\r\n  mapping (uint => string) public datasetHash;\r\n\r\n  //初始化平台管理者地址\r\n  constructor(){\r\n      manager = msg.sender;\r\n  }\r\n\r\n  //驗證是否為成員\r\n  modifier memberOnly{\r\n      require(members[msg.sender]==true);\r\n      _;\r\n  }\r\n\r\n  //計算資料申請的總數，當作資料要求的ID\r\n  uint public datasetCnt =0;\r\n  \r\n  //計算資料申請的總數，當作資料要求的ID\r\n  uint public cooperationCnt =0;\r\n\r\n  //註冊平台成員\r\n  function register(string memory _memHash) public {\r\n    members[msg.sender]=true;\r\n    memberHash[msg.sender]=_memHash;\r\n  }\r\n\r\n  //取得IPFS平台成員資訊\r\n  function getMember() public view returns (string memory) {\r\n    if(members[msg.sender])\r\n      return memberHash[msg.sender];\r\n    else\r\n      return '';\r\n  }\r\n\r\n  //更新平台成員資訊\r\n  function updateMember(string memory _memHash) public {\r\n    memberHash[msg.sender]=_memHash;\r\n  }\r\n\r\n  //創建提案\r\n  function createCooperation(string memory _cooperationHash) public memberOnly{\r\n    cooperationHash[cooperationCnt] = _cooperationHash;\r\n    cooperationCnt++;\r\n  }\r\n\r\n  //更新提案IPFS的hash\r\n  function updateCooperation(uint cooperationID,string memory _cooperationHash) public memberOnly{\r\n    cooperationHash[cooperationID] = _cooperationHash;\r\n  }\r\n\r\n  //取得提案ID對應的IPFS hash\r\n  function getCooperation(uint cooperationID) public view returns (string memory) {\r\n    return cooperationHash[cooperationID];\r\n  }\r\n\r\n  //創建資料提供者的資料資訊\r\n  function createDataset(string memory _datasetHash) public memberOnly{\r\n    datasetHash[datasetCnt] = _datasetHash;\r\n    datasetCnt++;\r\n  }\r\n\r\n  //取得資料集ID對應的IPFS hash\r\n  function getDataset(uint _datasetID) public view returns (string memory) {\r\n    return datasetHash[_datasetID];\r\n  }\r\n\r\n  //透過加密貨幣參與提案\r\n  function addCooperationWithEth() public payable memberOnly{}\r\n\r\n  //回傳合約餘額\r\n  function getContractBalance() public view returns(uint) {\r\n    return address(this).balance;\r\n  }\r\n\r\n  //分派獎金\r\n  function distributePay(address payable[] memory members, uint256[] memory amount,uint256 totalAmount) public{\r\n      require(address(this).balance>=totalAmount,\"Insufficient balance in faucet for withdrawal request\");\r\n      for(uint i = 0;i<members.length;i++) \r\n        members[i].transfer(amount[i]);\r\n  }\r\n}\r\n",
  "sourcePath": "C:\\Users\\YunChieh\\Desktop\\DataSharePlatform_IPFS\\DataSharePlatform_IPFS\\src\\contracts\\DSPF.sol",
  "compiler": {
    "name": "solc",
    "version": "0.7.0+commit.9e61f92b.Emscripten.clang"
  },
  "schemaVersion": "3.4.4",
  "updatedAt": "2022-03-22T12:33:51.080Z",
  "networkType": "ethereum",
  "devdoc": {
    "kind": "dev",
    "methods": {},
    "version": 1
  },
  "userdoc": {
    "kind": "user",
    "methods": {},
    "version": 1
  }
}