{
  "contractName": "DSPF",
  "abi": [
    {
      "inputs": [],
      "stateMutability": "nonpayable",
      "type": "constructor"
    },
    {
      "inputs": [],
      "name": "cooWaitingCnt",
      "outputs": [
        {
          "internalType": "uint256",
          "name": "",
          "type": "uint256"
        }
      ],
      "stateMutability": "view",
      "type": "function",
      "constant": true
    },
    {
      "inputs": [
        {
          "internalType": "uint256",
          "name": "",
          "type": "uint256"
        }
      ],
      "name": "cooWaitingVerified",
      "outputs": [
        {
          "internalType": "bool",
          "name": "",
          "type": "bool"
        }
      ],
      "stateMutability": "view",
      "type": "function",
      "constant": true
    },
    {
      "inputs": [],
      "name": "cooperationCnt",
      "outputs": [
        {
          "internalType": "uint256",
          "name": "",
          "type": "uint256"
        }
      ],
      "stateMutability": "view",
      "type": "function",
      "constant": true
    },
    {
      "inputs": [
        {
          "internalType": "uint256",
          "name": "",
          "type": "uint256"
        }
      ],
      "name": "cooperationHash",
      "outputs": [
        {
          "internalType": "string",
          "name": "",
          "type": "string"
        }
      ],
      "stateMutability": "view",
      "type": "function",
      "constant": true
    },
    {
      "inputs": [],
      "name": "datasetCnt",
      "outputs": [
        {
          "internalType": "uint256",
          "name": "",
          "type": "uint256"
        }
      ],
      "stateMutability": "view",
      "type": "function",
      "constant": true
    },
    {
      "inputs": [
        {
          "internalType": "uint256",
          "name": "",
          "type": "uint256"
        }
      ],
      "name": "datasetHash",
      "outputs": [
        {
          "internalType": "string",
          "name": "",
          "type": "string"
        }
      ],
      "stateMutability": "view",
      "type": "function",
      "constant": true
    },
    {
      "inputs": [
        {
          "internalType": "uint256",
          "name": "",
          "type": "uint256"
        }
      ],
      "name": "idtoWait",
      "outputs": [
        {
          "internalType": "address",
          "name": "",
          "type": "address"
        }
      ],
      "stateMutability": "view",
      "type": "function",
      "constant": true
    },
    {
      "inputs": [],
      "name": "manager",
      "outputs": [
        {
          "internalType": "address",
          "name": "",
          "type": "address"
        }
      ],
      "stateMutability": "view",
      "type": "function",
      "constant": true
    },
    {
      "inputs": [
        {
          "internalType": "address",
          "name": "",
          "type": "address"
        }
      ],
      "name": "memberHash",
      "outputs": [
        {
          "internalType": "string",
          "name": "",
          "type": "string"
        }
      ],
      "stateMutability": "view",
      "type": "function",
      "constant": true
    },
    {
      "inputs": [
        {
          "internalType": "address",
          "name": "",
          "type": "address"
        }
      ],
      "name": "members",
      "outputs": [
        {
          "internalType": "bool",
          "name": "",
          "type": "bool"
        }
      ],
      "stateMutability": "view",
      "type": "function",
      "constant": true
    },
    {
      "inputs": [],
      "name": "waitingMemsCnt",
      "outputs": [
        {
          "internalType": "uint256",
          "name": "",
          "type": "uint256"
        }
      ],
      "stateMutability": "view",
      "type": "function",
      "constant": true
    },
    {
      "inputs": [
        {
          "internalType": "address",
          "name": "",
          "type": "address"
        }
      ],
      "name": "watingVerified",
      "outputs": [
        {
          "internalType": "bool",
          "name": "",
          "type": "bool"
        }
      ],
      "stateMutability": "view",
      "type": "function",
      "constant": true
    },
    {
      "inputs": [
        {
          "internalType": "address",
          "name": "addr",
          "type": "address"
        }
      ],
      "name": "registerVerified",
      "outputs": [],
      "stateMutability": "nonpayable",
      "type": "function"
    },
    {
      "inputs": [
        {
          "internalType": "string",
          "name": "_memHash",
          "type": "string"
        }
      ],
      "name": "waitingVerified",
      "outputs": [],
      "stateMutability": "nonpayable",
      "type": "function"
    },
    {
      "inputs": [],
      "name": "getMember",
      "outputs": [
        {
          "internalType": "string",
          "name": "",
          "type": "string"
        }
      ],
      "stateMutability": "view",
      "type": "function",
      "constant": true
    },
    {
      "inputs": [
        {
          "internalType": "string",
          "name": "_memHash",
          "type": "string"
        }
      ],
      "name": "updateMember",
      "outputs": [],
      "stateMutability": "nonpayable",
      "type": "function"
    },
    {
      "inputs": [
        {
          "internalType": "address",
          "name": "_addr",
          "type": "address"
        },
        {
          "internalType": "string",
          "name": "_memHash",
          "type": "string"
        }
      ],
      "name": "joinUpdateMember",
      "outputs": [],
      "stateMutability": "nonpayable",
      "type": "function"
    },
    {
      "inputs": [
        {
          "internalType": "string",
          "name": "_cooperationHash",
          "type": "string"
        }
      ],
      "name": "createCooperation",
      "outputs": [],
      "stateMutability": "nonpayable",
      "type": "function"
    },
    {
      "inputs": [
        {
          "internalType": "uint256",
          "name": "_cooperationID",
          "type": "uint256"
        }
      ],
      "name": "verifyCooperation",
      "outputs": [],
      "stateMutability": "nonpayable",
      "type": "function"
    },
    {
      "inputs": [
        {
          "internalType": "uint256",
          "name": "cooperationID",
          "type": "uint256"
        },
        {
          "internalType": "string",
          "name": "_cooperationHash",
          "type": "string"
        }
      ],
      "name": "updateCooperation",
      "outputs": [],
      "stateMutability": "nonpayable",
      "type": "function"
    },
    {
      "inputs": [
        {
          "internalType": "uint256",
          "name": "cooperationID",
          "type": "uint256"
        }
      ],
      "name": "getCooperation",
      "outputs": [
        {
          "internalType": "string",
          "name": "",
          "type": "string"
        }
      ],
      "stateMutability": "view",
      "type": "function",
      "constant": true
    },
    {
      "inputs": [
        {
          "internalType": "string",
          "name": "_datasetHash",
          "type": "string"
        }
      ],
      "name": "createDataset",
      "outputs": [],
      "stateMutability": "nonpayable",
      "type": "function"
    },
    {
      "inputs": [
        {
          "internalType": "uint256",
          "name": "_datasetID",
          "type": "uint256"
        }
      ],
      "name": "getDataset",
      "outputs": [
        {
          "internalType": "string",
          "name": "",
          "type": "string"
        }
      ],
      "stateMutability": "view",
      "type": "function",
      "constant": true
    },
    {
      "inputs": [],
      "name": "addCooperationWithEth",
      "outputs": [],
      "stateMutability": "payable",
      "type": "function",
      "payable": true
    },
    {
      "inputs": [],
      "name": "getContractBalance",
      "outputs": [
        {
          "internalType": "uint256",
          "name": "",
          "type": "uint256"
        }
      ],
      "stateMutability": "view",
      "type": "function",
      "constant": true
    },
    {
      "inputs": [
        {
          "internalType": "address payable[]",
          "name": "getEthmembers",
          "type": "address[]"
        },
        {
          "internalType": "uint256[]",
          "name": "amount",
          "type": "uint256[]"
        },
        {
          "internalType": "uint256",
          "name": "totalAmount",
          "type": "uint256"
        }
      ],
      "name": "distributePay",
      "outputs": [],
      "stateMutability": "nonpayable",
      "type": "function"
    },
    {
      "inputs": [],
      "name": "kill",
      "outputs": [],
      "stateMutability": "nonpayable",
      "type": "function"
    }
  ],
  "bytecode": "0x6080604052600060085560006009556000600a556000600b5534801561002457600080fd5b50336000806101000a81548173ffffffffffffffffffffffffffffffffffffffff021916908373ffffffffffffffffffffffffffffffffffffffff160217905550611a1b806100746000396000f3fe60806040526004361061019c5760003560e01c8063724d9e36116100ec578063d4554c4c1161008a578063ee00422111610064578063ee004221146105cb578063f0fab6d414610608578063ffb6212a14610631578063fff9da7e1461065c5761019c565b8063d4554c4c14610526578063d64f1af114610551578063df51a98a1461058e5761019c565b8063995988a1116100c6578063995988a11461048d578063a955743014610497578063b1532cf6146104c0578063c56f7f80146104e95761019c565b8063724d9e36146103ea57806373e62afe146104275780638f6a1185146104505761019c565b806341c0e1b511610159578063586a588d11610133578063586a588d1461032e57806361805f44146103575780636ec1988d146103825780636f9fb98a146103bf5761019c565b806341c0e1b5146102c3578063481c6a75146102da57806348f0f6f0146103055761019c565b80630274c094146101a157806308ae4b0c146101cc5780630b011093146102095780630ec729871461023257806314a10b4d1461025b578063341565f814610286575b600080fd5b3480156101ad57600080fd5b506101b6610685565b6040516101c391906117d1565b60405180910390f35b3480156101d857600080fd5b506101f360048036038101906101ee9190611515565b6107ce565b60405161020091906117b6565b60405180910390f35b34801561021557600080fd5b50610230600480360381019061022b9190611515565b6107ee565b005b34801561023e57600080fd5b5061025960048036038101906102549190611611565b6108a0565b005b34801561026757600080fd5b506102706108f7565b60405161027d9190611813565b60405180910390f35b34801561029257600080fd5b506102ad60048036038101906102a89190611652565b6108fd565b6040516102ba91906117d1565b60405180910390f35b3480156102cf57600080fd5b506102d86109b2565b005b3480156102e657600080fd5b506102ef610a41565b6040516102fc919061179b565b60405180910390f35b34801561031157600080fd5b5061032c60048036038101906103279190611611565b610a65565b005b34801561033a57600080fd5b506103556004803603810190610350919061153e565b610b7a565b005b34801561036357600080fd5b5061036c610bd2565b6040516103799190611813565b60405180910390f35b34801561038e57600080fd5b506103a960048036038101906103a49190611652565b610bd8565b6040516103b691906117d1565b60405180910390f35b3480156103cb57600080fd5b506103d4610c88565b6040516103e19190611813565b60405180910390f35b3480156103f657600080fd5b50610411600480360381019061040c9190611652565b610c90565b60405161041e919061179b565b60405180910390f35b34801561043357600080fd5b5061044e60048036038101906104499190611592565b610cc3565b005b34801561045c57600080fd5b5061047760048036038101906104729190611652565b610d92565b60405161048491906117d1565b60405180910390f35b610495610e42565b005b3480156104a357600080fd5b506104be60048036038101906104b9919061167b565b610ea1565b005b3480156104cc57600080fd5b506104e760048036038101906104e29190611652565b610f2a565b005b3480156104f557600080fd5b50610510600480360381019061050b9190611515565b610fb6565b60405161051d91906117b6565b60405180910390f35b34801561053257600080fd5b5061053b610fd6565b6040516105489190611813565b60405180910390f35b34801561055d57600080fd5b5061057860048036038101906105739190611652565b610fdc565b60405161058591906117b6565b60405180910390f35b34801561059a57600080fd5b506105b560048036038101906105b09190611515565b610ffc565b6040516105c291906117d1565b60405180910390f35b3480156105d757600080fd5b506105f260048036038101906105ed9190611652565b6110ac565b6040516105ff91906117d1565b60405180910390f35b34801561061457600080fd5b5061062f600480360381019061062a9190611611565b611161565b005b34801561063d57600080fd5b506106466111fd565b6040516106539190611813565b60405180910390f35b34801561066857600080fd5b50610683600480360381019061067e9190611611565b611203565b005b6060600160003373ffffffffffffffffffffffffffffffffffffffff1673ffffffffffffffffffffffffffffffffffffffff16815260200190815260200160002060009054906101000a900460ff16156107b857600460003373ffffffffffffffffffffffffffffffffffffffff1673ffffffffffffffffffffffffffffffffffffffff1681526020019081526020016000208054600181600116156101000203166002900480601f0160208091040260200160405190810160405280929190818152602001828054600181600116156101000203166002900480156107ac5780601f10610781576101008083540402835291602001916107ac565b820191906000526020600020905b81548152906001019060200180831161078f57829003601f168201915b505050505090506107cb565b6040518060200160405280600081525090505b90565b60016020528060005260406000206000915054906101000a900460ff1681565b6000600360008373ffffffffffffffffffffffffffffffffffffffff1673ffffffffffffffffffffffffffffffffffffffff16815260200190815260200160002060006101000a81548160ff02191690831515021790555060018060008373ffffffffffffffffffffffffffffffffffffffff1673ffffffffffffffffffffffffffffffffffffffff16815260200190815260200160002060006101000a81548160ff02191690831515021790555050565b80600460003373ffffffffffffffffffffffffffffffffffffffff1673ffffffffffffffffffffffffffffffffffffffff16815260200190815260200160002090805190602001906108f39291906112df565b5050565b60085481565b6060600660008381526020019081526020016000208054600181600116156101000203166002900480601f0160208091040260200160405190810160405280929190818152602001828054600181600116156101000203166002900480156109a65780601f1061097b576101008083540402835291602001916109a6565b820191906000526020600020905b81548152906001019060200180831161098957829003601f168201915b50505050509050919050565b60008054906101000a900473ffffffffffffffffffffffffffffffffffffffff1673ffffffffffffffffffffffffffffffffffffffff163373ffffffffffffffffffffffffffffffffffffffff161415610a3f5760008054906101000a900473ffffffffffffffffffffffffffffffffffffffff1673ffffffffffffffffffffffffffffffffffffffff16ff5b565b60008054906101000a900473ffffffffffffffffffffffffffffffffffffffff1681565b3360026000600854815260200190815260200160002060006101000a81548173ffffffffffffffffffffffffffffffffffffffff021916908373ffffffffffffffffffffffffffffffffffffffff1602179055506001600360003373ffffffffffffffffffffffffffffffffffffffff1673ffffffffffffffffffffffffffffffffffffffff16815260200190815260200160002060006101000a81548160ff02191690831515021790555080600460003373ffffffffffffffffffffffffffffffffffffffff1673ffffffffffffffffffffffffffffffffffffffff1681526020019081526020016000209080519060200190610b649291906112df565b5060086000815480929190600101919050555050565b80600460008473ffffffffffffffffffffffffffffffffffffffff1673ffffffffffffffffffffffffffffffffffffffff1681526020019081526020016000209080519060200190610bcd9291906112df565b505050565b600b5481565b60066020528060005260406000206000915090508054600181600116156101000203166002900480601f016020809104026020016040519081016040528092919081815260200182805460018160011615610100020316600290048015610c805780601f10610c5557610100808354040283529160200191610c80565b820191906000526020600020905b815481529060010190602001808311610c6357829003601f168201915b505050505081565b600047905090565b60026020528060005260406000206000915054906101000a900473ffffffffffffffffffffffffffffffffffffffff1681565b80471015610d06576040517f08c379a0000000000000000000000000000000000000000000000000000000008152600401610cfd906117f3565b60405180910390fd5b60005b8351811015610d8c57838181518110610d1e57fe5b602002602001015173ffffffffffffffffffffffffffffffffffffffff166108fc848381518110610d4b57fe5b60200260200101519081150290604051600060405180830381858888f19350505050158015610d7e573d6000803e3d6000fd5b508080600101915050610d09565b50505050565b60076020528060005260406000206000915090508054600181600116156101000203166002900480601f016020809104026020016040519081016040528092919081815260200182805460018160011615610100020316600290048015610e3a5780601f10610e0f57610100808354040283529160200191610e3a565b820191906000526020600020905b815481529060010190602001808311610e1d57829003601f168201915b505050505081565b60011515600160003373ffffffffffffffffffffffffffffffffffffffff1673ffffffffffffffffffffffffffffffffffffffff16815260200190815260200160002060009054906101000a900460ff16151514610e9f57600080fd5b565b60011515600160003373ffffffffffffffffffffffffffffffffffffffff1673ffffffffffffffffffffffffffffffffffffffff16815260200190815260200160002060009054906101000a900460ff16151514610efe57600080fd5b80600660008481526020019081526020016000209080519060200190610f259291906112df565b505050565b60011515600160003373ffffffffffffffffffffffffffffffffffffffff1673ffffffffffffffffffffffffffffffffffffffff16815260200190815260200160002060009054906101000a900460ff16151514610f8757600080fd5b60006005600083815260200190815260200160002060006101000a81548160ff02191690831515021790555050565b60036020528060005260406000206000915054906101000a900460ff1681565b600a5481565b60056020528060005260406000206000915054906101000a900460ff1681565b60046020528060005260406000206000915090508054600181600116156101000203166002900480601f0160208091040260200160405190810160405280929190818152602001828054600181600116156101000203166002900480156110a45780601f10611079576101008083540402835291602001916110a4565b820191906000526020600020905b81548152906001019060200180831161108757829003601f168201915b505050505081565b6060600760008381526020019081526020016000208054600181600116156101000203166002900480601f0160208091040260200160405190810160405280929190818152602001828054600181600116156101000203166002900480156111555780601f1061112a57610100808354040283529160200191611155565b820191906000526020600020905b81548152906001019060200180831161113857829003601f168201915b50505050509050919050565b60011515600160003373ffffffffffffffffffffffffffffffffffffffff1673ffffffffffffffffffffffffffffffffffffffff16815260200190815260200160002060009054906101000a900460ff161515146111be57600080fd5b8060076000600954815260200190815260200160002090805190602001906111e79291906112df565b5060096000815480929190600101919050555050565b60095481565b60011515600160003373ffffffffffffffffffffffffffffffffffffffff1673ffffffffffffffffffffffffffffffffffffffff16815260200190815260200160002060009054906101000a900460ff1615151461126057600080fd5b8060066000600b54815260200190815260200160002090805190602001906112899291906112df565b50600160056000600a54815260200190815260200160002060006101000a81548160ff021916908315150217905550600a60008154809291906001019190505550600b6000815480929190600101919050555050565b828054600181600116156101000203166002900490600052602060002090601f016020900481019282601f1061132057805160ff191683800117855561134e565b8280016001018555821561134e579182015b8281111561134d578251825591602001919060010190611332565b5b50905061135b919061135f565b5090565b5b80821115611378576000816000905550600101611360565b5090565b60008135905061138b816119a0565b92915050565b6000813590506113a0816119b7565b92915050565b600082601f8301126113b757600080fd5b81356113ca6113c58261185b565b61182e565b915081818352602084019350602081019050838560208402820111156113ef57600080fd5b60005b8381101561141f57816114058882611391565b8452602084019350602083019250506001810190506113f2565b5050505092915050565b600082601f83011261143a57600080fd5b813561144d61144882611883565b61182e565b9150818183526020840193506020810190508385602084028201111561147257600080fd5b60005b838110156114a257816114888882611500565b845260208401935060208301925050600181019050611475565b5050505092915050565b600082601f8301126114bd57600080fd5b81356114d06114cb826118ab565b61182e565b915080825260208301602083018583830111156114ec57600080fd5b6114f783828461194d565b50505092915050565b60008135905061150f816119ce565b92915050565b60006020828403121561152757600080fd5b60006115358482850161137c565b91505092915050565b6000806040838503121561155157600080fd5b600061155f8582860161137c565b925050602083013567ffffffffffffffff81111561157c57600080fd5b611588858286016114ac565b9150509250929050565b6000806000606084860312156115a757600080fd5b600084013567ffffffffffffffff8111156115c157600080fd5b6115cd868287016113a6565b935050602084013567ffffffffffffffff8111156115ea57600080fd5b6115f686828701611429565b925050604061160786828701611500565b9150509250925092565b60006020828403121561162357600080fd5b600082013567ffffffffffffffff81111561163d57600080fd5b611649848285016114ac565b91505092915050565b60006020828403121561166457600080fd5b600061167284828501611500565b91505092915050565b6000806040838503121561168e57600080fd5b600061169c85828601611500565b925050602083013567ffffffffffffffff8111156116b957600080fd5b6116c5858286016114ac565b9150509250929050565b6116d8816118f3565b82525050565b6116e781611917565b82525050565b60006116f8826118d7565b61170281856118e2565b935061171281856020860161195c565b61171b8161198f565b840191505092915050565b60006117336035836118e2565b91507f496e73756666696369656e742062616c616e636520696e20666175636574206660008301527f6f72207769746864726177616c207265717565737400000000000000000000006020830152604082019050919050565b61179581611943565b82525050565b60006020820190506117b060008301846116cf565b92915050565b60006020820190506117cb60008301846116de565b92915050565b600060208201905081810360008301526117eb81846116ed565b905092915050565b6000602082019050818103600083015261180c81611726565b9050919050565b6000602082019050611828600083018461178c565b92915050565b6000604051905081810181811067ffffffffffffffff8211171561185157600080fd5b8060405250919050565b600067ffffffffffffffff82111561187257600080fd5b602082029050602081019050919050565b600067ffffffffffffffff82111561189a57600080fd5b602082029050602081019050919050565b600067ffffffffffffffff8211156118c257600080fd5b601f19601f8301169050602081019050919050565b600081519050919050565b600082825260208201905092915050565b60006118fe82611923565b9050919050565b600061191082611923565b9050919050565b60008115159050919050565b600073ffffffffffffffffffffffffffffffffffffffff82169050919050565b6000819050919050565b82818337600083830152505050565b60005b8381101561197a57808201518184015260208101905061195f565b83811115611989576000848401525b50505050565b6000601f19601f8301169050919050565b6119a9816118f3565b81146119b457600080fd5b50565b6119c081611905565b81146119cb57600080fd5b50565b6119d781611943565b81146119e257600080fd5b5056fea264697066735822122038d01a57a23606a1c0101fadf1d4be7bc9ea9e84f11d05db16d89f863f2888f064736f6c63430007000033",
  "immutableReferences": {},
  "source": "// SPDX-License-Identifier: GPL-3.0\r\npragma solidity >=0.7.0 <0.9.0;\r\npragma experimental ABIEncoderV2;\r\ncontract DSPF {\r\n  //\r\n  address public manager;\r\n  mapping (address => bool) public members;\r\n  mapping (uint => address) public idtoWait;\r\n  mapping (address => bool) public watingVerified;\r\n\r\n  mapping (address => string) public memberHash;\r\n\r\n  mapping (uint => bool) public cooWaitingVerified;\r\n  mapping (uint => string) public cooperationHash;\r\n  mapping (uint => string) public datasetHash;\r\n\r\n\r\n  //\r\n  constructor(){\r\n      manager = msg.sender;\r\n  }\r\n\r\n  //\r\n  modifier memberOnly{\r\n      require(members[msg.sender]==true);\r\n      _;\r\n  }\r\n  //\r\n  uint public waitingMemsCnt =0;\r\n  \r\n  //ID\r\n  uint public datasetCnt =0;\r\n  \r\n  //ID\r\n  uint public cooWaitingCnt =0;\r\n  uint public cooperationCnt =0;\r\n\r\n\r\n  //\r\n  function registerVerified(address addr) public {\r\n    watingVerified[addr]=false;\r\n    members[addr]=true;\r\n  }\r\n  //\r\n  function waitingVerified(string memory _memHash) public {\r\n    idtoWait[waitingMemsCnt]=msg.sender;\r\n    watingVerified[msg.sender]=true;\r\n    memberHash[msg.sender]=_memHash;\r\n    waitingMemsCnt++;\r\n  }\r\n\r\n  //IPFS\r\n  function getMember() public view returns (string memory) {\r\n    if(members[msg.sender])\r\n      return memberHash[msg.sender];\r\n    else\r\n      return '';\r\n  }\r\n\r\n  //\r\n  function updateMember(string memory _memHash) public {\r\n    memberHash[msg.sender]=_memHash;\r\n  }\r\n\r\n  //\r\n  function joinUpdateMember(address _addr,string memory _memHash) public {\r\n    memberHash[_addr]=_memHash;\r\n  }\r\n\r\n\r\n  //\r\n  function createCooperation(string memory _cooperationHash) public memberOnly{\r\n    cooperationHash[cooperationCnt] = _cooperationHash;\r\n    cooWaitingVerified[cooWaitingCnt]=true;\r\n    cooWaitingCnt++;\r\n    cooperationCnt++;\r\n  }\r\n\r\n  //\r\n  function verifyCooperation(uint _cooperationID) public memberOnly{\r\n    cooWaitingVerified[_cooperationID]=false;\r\n  }\r\n\r\n  //IPFShash\r\n  function updateCooperation(uint cooperationID,string memory _cooperationHash) public memberOnly{\r\n    cooperationHash[cooperationID] = _cooperationHash;\r\n  }\r\n\r\n  //IDIPFS hash\r\n  function getCooperation(uint cooperationID) public view returns (string memory) {\r\n    return cooperationHash[cooperationID];\r\n  }\r\n\r\n  //\r\n  function createDataset(string memory _datasetHash) public memberOnly{\r\n    datasetHash[datasetCnt] = _datasetHash;\r\n    datasetCnt++;\r\n  }\r\n\r\n  //IDIPFS hash\r\n  function getDataset(uint _datasetID) public view returns (string memory) {\r\n    return datasetHash[_datasetID];\r\n  }\r\n\r\n  //\r\n  function addCooperationWithEth() public payable memberOnly{}\r\n\r\n  //\r\n  function getContractBalance() public view returns(uint) {\r\n    return address(this).balance;\r\n  }\r\n\r\n  //\r\n  function distributePay(address payable[] memory getEthmembers, uint256[] memory amount,uint256 totalAmount) public{\r\n      require(address(this).balance>=totalAmount,\"Insufficient balance in faucet for withdrawal request\");\r\n      for(uint i = 0;i<getEthmembers.length;i++) \r\n        getEthmembers[i].transfer(amount[i]);\r\n  }\r\n  function kill() public {\r\n        if (msg.sender == manager) selfdestruct(payable(manager)); //\r\n  }\r\n}\r\n",
  "sourcePath": "C:\\Users\\YunChieh\\Desktop\\DataSharePlatform_IPFS\\DataSharePlatform_IPFS\\src\\contracts\\DSPF.sol",
  "compiler": {
    "name": "solc",
    "version": "0.7.0+commit.9e61f92b.Emscripten.clang"
  },
  "schemaVersion": "3.4.4",
  "updatedAt": "2022-04-28T13:45:55.071Z",
  "networkType": "ethereum",
  "devdoc": {
    "kind": "dev",
    "methods": {},
    "version": 1
  },
  "userdoc": {
    "kind": "user",
    "methods": {},
    "version": 1
  }
}